:020000040800F2
:10000000900B0020BD020008CB020008CD020008C2
:10001000CF020008D1020008D3020008000000004F
:10002000000000000000000000000000D5020008F1
:10003000D702000800000000D9020008DB02000817
:10004000DD020008DD020008DD0200082949000881
:10005000DD020008DD020008DD020008DD02000804
:10006000DD020008DD020008DD020008DD020008F4
:10007000DD020008DD020008DD020008DD020008E4
:10008000DD020008DD020008DD020008DD020008D4
:10009000DD020008DD020008DD020008DD020008C4
:1000A000DD020008DD020008DD020008DD020008B4
:1000B000DD020008694B0008CD4B0008DD02000896
:1000C000DD020008DD020008DD020008DD02000894
:1000D000DD020008414D0008DD020008DD020008D5
:1000E000DD02000811470008DD020008DD020008FB
:1000F000DD020008DD020008DD020008DD02000864
:10010000DD020008DD020008094C0008DD020008DD
:10011000DD020008DD020008DD020008DD02000843
:10012000DD020008DD020008DD020008DD02000833
:10013000DD020008DD020008DD020008DD02000823
:10014000DD020008DD020008DD020008DD02000813
:10015000DD020008DD020008DD020008DD02000803
:10016000DD020008DD020008DD020008DD020008F3
:10017000DD020008DD020008DD02000800000000CA
:10018000DD020008DD020008DD020008DD020008D3
:10019000DD020008DD020008DD020008DD020008C3
:1001A000DD020008DD020008DD02000800F002F8B0
:1001B00000F075F80AA090E8000C82448344AAF18C
:1001C0000107DA4501D100F06AF8AFF2090EBAE88A
:1001D0000F0013F0010F18BFFB1A43F0010318477B
:1001E00038B6000058B600000A444FF0000C10F872
:1001F000013B13F0070408BF10F8014B1D1108BFA5
:1002000010F8015B641E05D010F8016B641E01F844
:10021000016BF9D113F0080F1EBF10F8014BAD1C94
:100220000C1B09D16D1E58BF01F801CBFAD505E0B2
:1002300014F8016B01F8016B6D1EF9D59142D6D30C
:10024000704700000023002400250026103A28BF34
:1002500078C1FBD8520728BF30C148BF0B60704738
:1002600003681B0A28BF41F08001642900F0BA80AE
:10027000752900F0B780782900F02E81E42900F07C
:10028000ED80632900F0E182732900F0E68200200E
:1002900070471FB506F0B6FC1FBD10B510BD00F0CD
:1002A000F7FA1146FFF7F5FF04F0FAFE00F015FB30
:1002B00003B4FFF7F2FF03BC04F089FD0B480168AB
:1002C00041F4700101600A480047FEE7FEE7FEE7DF
:1002D000FEE7FEE7FEE7FEE7FEE7FEE7FEE70000DB
:1002E00004480549034A054B7047000088ED00E0CB
:1002F000AD01000890030020900B00209003002027
:10030000704700000FB4044910B503AA029800F02A
:10031000A9FA10BC5DF814FB040000200FB41CB552
:10032000074B06AA7B4469460090059800F06BFADB
:100330000020694600F07AFA1CBC5DF814FB00004E
:100340000505000070B5044685690068C10601D541
:10035000302600E02026C00707D070BDD4E9012177
:1003600030469047206A401C20626D1EF6D570BD55
:1003700070B5044685690078C00707D170BDD4E91F
:10038000012120209047206A401C20626D1EF6D576
:1003900070BD70B50C460546012A05D02878800648
:1003A00000D5EA69002302E0012305E05B1C9342CB
:1003B00002D2E05C0028F9D1A869E618C01AA86149
:1003C000286A184428622846FFF7BCFF04E0D5E9F4
:1003D000012114F8010B9047B442F8D32846FFF7E7
:1003E000C7FF70BD2DE9F04106460024106875294D
:1003F000314616A510D0AFF30080002802DA404243
:1004000013A507E031688A0701D512A502E0490764
:1004100004D511A5012401E0AFF3008000210A22D8
:1004200006F1240709E0B0FBF2FCB0FBF2F302FB9B
:100430001C00303078541846491C0028F3D123465C
:100440002A463046BDE8F04100F07FB900000000C8
:100450002D0000002B000000200000002DE9F041DD
:100460008046D21D22F007020025D2E90002F529BC
:1004700015A614D0011E72F1000106DA0023D0EB9C
:10048000030063EB020211A608E0D8F800108B0706
:1004900001D50FA602E0490701D50EA60125114698
:1004A000002408F1240704E000F00AF930323A553C
:1004B000641C50EA0102F7D12B46324621464046E1
:1004C000BDE8F04100F041B9000000002D0000003F
:1004D0002B0000002000000070B504460D462146A8
:1004E0001068AFF300802188090502D50F4A7A44CD
:1004F00002E00E4A7A440E32002104F1240305E0A2
:1005000000F00F060009965D5E54491C0028F7D1E3
:1005100020780023000704D5702D02D009B10223F2
:1005200011322046BDE8704000F00FB986AE0000E1
:100530002DE9F05F894604464FF0000ADFF874B1F8
:10054000FB44C0F820A02046E1688847002874D00A
:10055000252806D0D4E901219047206A401C20625A
:10056000F1E700265F462046E168884720280546D7
:1005700007DB312D05D2781910F8200C08B106439D
:10058000F1E7B00701D526F00406C4F81CA0002747
:10059000C4F818A02A2D09D0284604F011FC38B35D
:1005A00004EB8708303DC8F8185019E059F8041BCF
:1005B000204604EB87029161E1688847012F0546D8
:1005C00018D1E069002820DA26F020061DE0D8F8CE
:1005D000180000EB800005EB40003038C8F8180028
:1005E0002046E1688847054604F0EAFB0028EED182
:1005F000012F0AD02E2D08D12046E16888477F1CA4
:100600000546022F46F02006C4DBA069002803DA65
:10061000404246F00106A061F00701D026F0100626
:100620006C2D0BD0682D09D04C2D39D06A2D35D0CA
:10063000742D35D07A2D33D016E038E0E1682F469E
:1006400020468847B842054609D16C2F26D04FF482
:100650008060E168064320468847054604E06C2F29
:100660001AD04FF4807006430DB3A5F1410019284C
:1006700002D8203546F400664A46294620462660C0
:100680004E46FFF7EDFD80B101280BD0F61D26F098
:10069000070000F1080956E74020E4E78020D8E78A
:1006A0000020D6E706F104094DE7284652E7206A04
:1006B000BDE8F09F5CAE0000704770477047704720
:1006C00030B5B0F10A024FEA900E71F100034EEA24
:1006D000817EB0EB0E0061EB91014FEA101E4EEAF5
:1006E000017E10EB0E0041EB11114FEA102E4EEA85
:1006F000016E10EB0E0041EB11214FEA104E4EEA55
:10070000014E10EB0E0041EB1141401841F1000188
:100710004FEAD00040EA41704FEAD10110EB80056A
:100720004FEA810444EA907444EB01046D1944EBF0
:100730000404521BA3414FF0000348BF0A3200D506
:1007400030BD401C41F1000130BD2DE9F0470D46A0
:1007500099469246044600F124080168880604D5AB
:10076000E06921F01001216000E00120A84201DDD4
:10077000471B00E00027A1697A1902EB0900081A5B
:10078000A0612078C00602D42046FFF7DBFD0026DA
:1007900008E0D4E901211AF806009047206A401CBD
:1007A000761C20624E45F4DB2078C0060AD5204630
:1007B000FFF7C8FD06E0D4E9012130209047206A08
:1007C000401C2062381EA7F10107F4DC07E0D4E9E1
:1007D000012118F805009047206A401C2062281E5D
:1007E000A5F10105F3DC2046FFF7C2FD20780006E5
:1007F00002D50220BDE8F0870120FBE701694A1C11
:1008000002610878704700B58FB0CDE90131002151
:10081000059105497944CDE9031011466846FFF773
:1008200087FE0FB000BD0000E5FFFFFF0A6802F879
:10083000010B0A60704710B5436913B1AFF3008034
:1008400001E0FFF7A6FD012010BD127800F12401A0
:100850000A7000224A700122EDE711684FF0FF3262
:10086000E9E70000074B70B50D467B44FFF7CBFF6F
:100870000446284600F008F810B14FF0FF3070BD74
:10088000204670BD7F470000007B00F0800070476D
:10089000754600F02BF8AE4605006946534620F039
:1008A0000700854618B020B5FFF71AFDBDE82040C7
:1008B0004FF000064FF000074FF000084FF0000B1C
:1008C00021F00701AC46ACE8C009ACE8C009ACE8CF
:1008D000C009ACE8C0098D46704710B50446AFF3B7
:1008E00000802046BDE81040FFF7E2BC004870479A
:1008F0002C03002030B5CC1000F1200353F8243035
:100900004C07E50E0F24AC40A343CD1000F12004AA
:1009100044F82530CC1000F1200353F824304C0764
:10092000E40E02FA04F42343CD1000F1200444F84D
:10093000253030BD2DE9F0470C46DDE90867002180
:1009400000258C4600BF60E04FF0010808FA01F571
:1009500004EA050CAC4557D1D0F800804FEA410AB3
:100960004FF0030909FA0AF928EA0908C0F80080DB
:10097000D0F800804FEA410902FA09F948EA09086B
:10098000C0F80080012A01D0022A27D1D0F80880BF
:100990004FEA410A4FF0030909FA0AF928EA09085F
:1009A000C0F80880D0F808804FEA410906FA09F932
:1009B00048EA0908C0F80880D0F804904FF0010810
:1009C00008FA01F829EA0809C0F80490D0F8048070
:1009D00003FA01F948EA0908C0F80480D0F80C804D
:1009E0004FEA410A4FF0030909FA0AF928EA09080F
:1009F000C0F80C80D0F80C804FEA410907FA09F9D9
:100A000048EA0908C0F80C80491C10299CD3BDE8AD
:100A1000F087000070B5044600260D4805880D4893
:100A2000006818B1204603F073F90FE008484088C9
:100A300045430021084602F02BFF03F057F900263A
:100A400002E005490C80761CAE42FAD370BD00006E
:100A5000FC0200200C0300200000086010B50446D2
:100A60005C4884715C48006850B1204603F0AEF9E0
:100A70005948C08A574908805748008B488010BDA4
:100A8000002C51D1F020534908804FF4A0704880C9
:100A90000846808849F24131884205D04D48808817
:100AA00045F21031884214D12C204A4908812A206D
:100AB00048812B2088810846808845F21031884281
:100AC00006D14FF4A070434908804FF4F07048807D
:100AD0007BE04048808845F21051884210D14FF4A5
:100AE00030503C4908814FF4285048814FF42C5035
:100AF00088814FF4F07008804FF44870488064E0BB
:100B00003448808841F6631188425ED12C203149F7
:100B100008812B2048812A2088814FF4F0700880BA
:100B20004FF44870488050E04FF4A0702949088085
:100B3000F02048800846808849F24131884205D03B
:100B40002448808845F21031884207D12C20214961
:100B500008812A2048812B20888129E01D4880882F
:100B600045F21051884210D14FF430501949088194
:100B70004FF4285048814FF42C5088814FF448702E
:100B800008804FF4F070488012E01248808841F6E7
:100B9000631188420CD12C200E4908812A204881FB
:100BA0002B2088814FF4487008804FF4F070488003
:100BB0000848808845F21031884206D14FF4F07021
:100BC000044908804FF4A0704880002002F026FD00
:100BD00000BF54E7FC0200200C0300202DE9FF4F6A
:100BE00085B081468A460020049003900798A0EBC8
:100BF00009050898A0EB0A06CDF80890CDF804A0E6
:100C0000002D01DD012705E00DB9002702E04FF0BE
:100C1000FF376D42002E02DD4FF0010806E016B9E5
:100C20004FF0000802E04FF0FF387642B54201DD98
:100C30002C4600E034464FF0000B21E0019A91B2BF
:100C4000029A90B200F022F8049828440490039885
:100C5000304403900498A04205DD0498001B0490E2
:100C60000298384402900398A04205DD0398001BC7
:100C700003900198404401900BF101001FFA80FBA2
:100C8000601C8345DADD09B0BDE8F08F70B504461D
:100C90000D460A48006830B10948294602682046D6
:100CA00003F0AAF809E02946204602F0F1FD03F01E
:100CB0001DF8034800880349088070BD0C0300201C
:100CC00044000020000008602DE9F04104460D4674
:100CD00016461F462B46324629462046FFF77EFF22
:100CE0003B46224629462046FFF778FF3B463246E0
:100CF00039462046FFF772FF3B46324629463046CA
:100D0000FFF76CFFBDE8F0812DE9F04706460F467E
:100D10009046002445460320A0EB48093CE07A1B9E
:100D200091B2321990B2FFF7B1FF3A1B91B272192A
:100D300090B2FFF7ABFF3A1991B2721990B2FFF778
:100D4000A5FF7A1991B2321990B2FFF79FFF7A1975
:100D500091B2321B90B2FFF799FF3A1991B2721B10
:100D600090B2FFF793FF7A1B91B2321B90B2FFF75C
:100D70008DFF3A1B91B2721B90B2FFF787FF641C84
:100D8000B9F1000F03DAA000801D814404E0601B6C
:100D900080000A3081446D1EAC42C0DDBDE8F087A2
:100DA00070B504460D4616464348006828B13246E1
:100DB0002946204603F020F870BD4048808849F25B
:100DC0004131884205D03D48808845F21031884243
:100DD00014D13A49488902F07DFF201202F06EFFDB
:100DE000E0B202F06BFF3549888902F073FF2812E8
:100DF00002F064FFE8B202F061FF54E02F488088FF
:100E000045F21051884220D12C49488902F062FFF6
:100E1000201202F053FF29494989491C88B202F087
:100E200059FFE0B202F04AFF2449888902F052FFDC
:100E3000281202F043FF21498989491C88B202F037
:100E400049FFE8B202F03AFF2DE01C48808841F6E5
:100E50006311884227D11948807920B91748008842
:100E6000401E001B84B21549488902F033FF20124E
:100E700002F024FFE0B202F021FF201202F01EFF78
:100E8000E0B202F01BFF0D49888902F023FF28120F
:100E900002F014FFE8B202F011FF281202F00EFF78
:100EA000E8B202F00BFF0548008905490880891C5B
:100EB0000E8000BF80E700000C030020FC02002031
:100EC000FEFF07602DE9F84F05460E461746984687
:100ED000DDF828904FF0000B1448006840B14346FD
:100EE0003A4631462846CDF8009002F0ADFF1BE0AF
:100EF000781B401C1FFA80FB344613E0214628462D
:100F000002F0C6FC02F0F2FE4FF0000A06E00849CB
:100F1000A1F800900AF101001FFA80FADA45F6DB29
:100F2000601C84B24445E9DDBDE8F88F0C03002065
:100F3000000008601CB503F001FBFE4988800846EC
:100F4000808818B103F024F802F076BAFA480068F5
:100F500040F00200F84908600846006840F01800B8
:100F60000860F5480830006840F00100F249083197
:100F700008600120022100230246CDE90010202153
:100F8000EE48FFF7D7FC0120032100230222CDE920
:100F900000104EF2B371EA48FFF7CCFC01200321A8
:100FA00000230222CDE900104FF68071E548FFF7DB
:100FB000C1FC0C220021E248FFF79CFC0C2201211D
:100FC000DF48FFF797FC0C220421DD48FFF792FC75
:100FD0000C220521DA48FFF78DFC0C220721D848A6
:100FE000FFF788FC0C220821D548FFF783FC0C2270
:100FF0000921D348FFF77EFC0C220A21D048FFF7D5
:1010000079FC0C220D21CE48FFF774FC0C220E2136
:10101000CB48FFF76FFC0C220F21C948FFF76AFC91
:101020000C220721C748FFF765FC0C220821C548A0
:10103000FFF760FC0C220921C248FFF75BFC0C2281
:101040000A21C048FFF756FC0C220B21BD48FFF7D0
:1010500051FC0C221146BB48FFF74CFC0C220D2121
:10106000B848FFF747FC0C220E21B648FFF742FCB8
:101070000C220F21B348FFF73DFC00204FF0204128
:1010800008604860B04908604FF02040006840F4B4
:1010900080504FF0204108600846006840F48040CE
:1010A00008600846006840F0100008600846406884
:1010B00048600846406840F00F00486008464068B5
:1010C00040F48C404860A0480068C1F8040108461C
:1010D000D0F8040140F00F00C1F804010846D0F830
:1010E000040140F47060C1F804010846006840F053
:1010F00001000860322003F021FFD32002F0EAFD56
:1011000002F0ECF98B49888002F0E8F9894988807F
:1011100002F0E4F987498880084680884FF6FF711D
:1011200001EA00208349888002F0D8F98149898842
:101130000843804988800846808849F241318842C6
:1011400078D0D42002F0C6FD02F0C8F97949888031
:1011500002F0C4F97749888002F0C0F975498880A7
:10116000084680884FF6FF7101EA002071498880A7
:1011700002F0B4F96F49898808436E4988800846AF
:10118000808845F21031884254D04FF45A4002F022
:10119000A1FD02F0A3F9674988804FF45B4002F09B
:1011A00099FD02F09BF963498880084680884FF6D4
:1011B000FF7101EA00205F4988804FF45C4002F033
:1011C00089FD02F08BF95B49898808435949888079
:1011D00008468088B0F5004F02D145F21050888053
:1011E0005448808845F21051884223D0A12002F053
:1011F00071FD02F073F94F49888002F06FF94D4993
:101200008880084680884FF6FF7101EA002049492E
:10121000888002F063F947498988084345498880F6
:101220000846808845F26171884203D141F6631017
:10123000404988803F48818844A0FFF763F83D48D3
:10124000808849F24131884272D1CF2002F042FDBC
:10125000002002F033FDC12002F030FD302002F00A
:101260002DFDED2002F036FD642002F027FD032065
:1012700002F024FD122002F021FD812002F01EFD6B
:10128000E82002F027FD852002F018FD102002F072
:1012900015FD7A2002F012FDCB2002F01BFD392053
:1012A00002F00CFD2C2002F009FD002002F006FDEA
:1012B000342002F003FD022002F000FDF72002F0CE
:1012C00009FD202002F0FAFCEA2002F003FD0020D4
:1012D00002F0F4FC002002F0F1FCC02002F0FAFC65
:1012E0001B2002F0EBFCC12002F0F4FC012002F014
:1012F000E5FCC52002F0EEFC302002F0DFFC3020DF
:1013000002F0DCFCC72002F0E5FCB72002F0D6FCBE
:10131000362002F0DFFC482002F0D0FC3A2002F038
:10132000D9FC552002F0CAFCB12002F0D3FC15E034
:10133000B7E00000FC020020303802400004024008
:10134000000C024000100240040100A0204C434465
:101350002049443A25780D0A00000000002002F0E0
:10136000ADFC1A2002F0AAFCB62002F0B3FC0A2061
:1013700002F0A4FCA22002F0A1FCF22002F0AAFCE0
:10138000002002F09BFC262002F0A4FC012002F0C9
:1013900095FCE02002F09EFC0F2002F08FFC2A203A
:1013A00002F08CFC282002F089FC082002F086FC68
:1013B0000E2002F083FC082002F080FC542002F092
:1013C0007DFCA92002F07AFC432002F077FC0A2081
:1013D00002F074FC0F2002F071FC002002F06EFCA1
:1013E000002002F06BFC002002F068FC002002F0FC
:1013F00065FCE12002F06EFC002002F05FFC15208D
:1014000002F05CFC172002F059FC072002F056FCA9
:10141000112002F053FC062002F050FC2B2002F0B9
:101420004DFC562002F04AFC3C2002F047FC05200F
:1014300002F044FC102002F041FC0F2002F03EFCC0
:101440003F2002F03BFC3F2002F038FC0F2002F06E
:1014500035FC2B2002F03EFC002002F02FFC002087
:1014600002F02CFC012002F029FC3F2002F026FCB7
:101470002A2002F02FFC002002F020FC002002F0C5
:101480001DFC002002F01AFCEF2002F017FC1120D6
:1014900002F020FC782003F051FD292002F01AFC14
:1014A00052E5FE48808845F21031884240F07C8742
:1014B000ED2002F00FFC012002F000FCFE2002F003
:1014C000FDFBEE2002F006FCDE2002F0F7FB2120FF
:1014D00002F0F4FBF12002F0FDFB012002F0EEFB34
:1014E000DF2002F0F7FB102002F0E8FBC42002F03E
:1014F000F1FB8F2002F0E2FBC62002F0EBFB0020A4
:1015000002F0DCFBE22002F0D9FBE22002F0D6FB85
:10151000E22002F0D3FBBF2002F0DCFBAA2002F0A5
:10152000CDFBB02002F0D6FB0D2002F0C7FB00205F
:1015300002F0C4FB0D2002F0C1FB002002F0BEFB54
:10154000112002F0BBFB002002F0B8FB192002F0D2
:10155000B5FB002002F0B2FB212002F0AFFB00201F
:1015600002F0ACFB2D2002F0A9FB002002F0A6FB4C
:101570003D2002F0A3FB002002F0A0FB5D2002F062
:101580009DFB002002F09AFB5D2002F097FB0020FB
:1015900002F094FBB12002F09DFB802002F08EFB54
:1015A000002002F08BFB8B2002F088FB002002F071
:1015B00085FB962002F082FB002002F07FFBB22028
:1015C00002F088FB002002F079FB002002F076FB9D
:1015D000022002F073FB002002F070FB032002F0F7
:1015E0006DFB002002F06AFBB32002F073FB0020C9
:1015F00002F064FB002002F061FB002002F05EFBC1
:10160000002002F05BFB002002F058FB002002F0FB
:1016100055FB002002F052FB002002F04FFB00209F
:1016200002F04CFB002002F049FB002002F046FBD8
:10163000002002F043FB002002F040FB002002F0FB
:101640003DFB002002F03AFB002002F037FB0020B7
:1016500002F034FB002002F031FB002002F02EFBF0
:10166000002002F02BFB002002F028FB002002F0FB
:1016700025FB002002F022FB002002F01FFBB4201B
:1016800002F028FB8B2002F019FB002002F016FB71
:10169000962002F013FB002002F010FBA12002F0C4
:1016A0000DFB002002F00AFBB52002F013FB022024
:1016B00002F004FB002002F001FB032002F0FEFA1E
:1016C000002002F0FBFA042002F0F8FA002002F0F9
:1016D000F5FAB62002F0FEFA002002F0EFFA002040
:1016E00002F0ECFAB72002F0F5FA002002F0E6FA78
:1016F000002002F0E3FA3F2002F0E0FA002002F0BE
:10170000DDFA5E2002F0DAFA002002F0D7FA642057
:1017100002F0D4FA002002F0D1FA8C2002F0CEFAC6
:10172000002002F0CBFAAC2002F0C8FA002002F050
:10173000C5FADC2002F0C2FA002002F0BFFA7020E5
:1017400002F0BCFA002002F0B9FA902002F0B6FADA
:10175000002002F0B3FAEB2002F0B0FA002002F011
:10176000ADFADC2002F0AAFA002002F0A7FAB820B5
:1017700002F0B0FA002002F0A1FA002002F09EFA76
:10178000002002F09BFA002002F098FA002002F0FC
:1017900095FA002002F092FA002002F08FFA002061
:1017A00002F08CFABA2002F095FA242002F086FAB0
:1017B000002002F083FA002002F080FA002002F0FC
:1017C0007DFAC12002F086FA202002F077FA00208C
:1017D00002F074FA542002F071FA002002F06EFA5E
:1017E000FF2002F06BFA002002F068FAC22002F03B
:1017F00071FA0A2002F062FA002002F05FFA042077
:1018000002F05CFA002002F059FAC32002F062FAFA
:101810003C2002F053FA002002F050FA3A2002F085
:101820004DFA002002F04AFA392002F047FA00206F
:1018300002F044FA372002F041FA002002F03EFAAA
:101840003C2002F03BFA002002F038FA362002F089
:1018500035FA002002F032FA322002F02FFA00208E
:1018600002F02CFA2F2002F029FA002002F026FACA
:101870002C2002F023FA002002F020FA292002F0A6
:101880001DFA002002F01AFA262002F017FA0020B2
:1018900002F014FA242002F011FA01E0FC02002008
:1018A000002002F00BFA242002F008FA002002F0D7
:1018B00005FA232002F002FA002002F0FFF93C2092
:1018C00002F0FCF9002002F0F9F9362002F0F6F9F6
:1018D000002002F0F3F9322002F0F0F9002002F0CB
:1018E000EDF92F2002F0EAF9002002F0E7F92C20B0
:1018F00002F0E4F9002002F0E1F9292002F0DEF91B
:10190000002002F0DBF9262002F0D8F9002002F0D6
:10191000D5F9242002F0D2F9002002F0CFF92420DA
:1019200002F0CCF9002002F0C9F9232002F0C6F938
:10193000002002F0C3F9C42002F0CCF9622002F0CA
:10194000BDF9002002F0BAF9052002F0B7F9002035
:1019500002F0B4F9842002F0B1F9002002F0AEF9EF
:10196000F02002F0ABF9002002F0A8F9182002F0F4
:10197000A5F9002002F0A2F9A42002F09FF90020AE
:1019800002F09CF9182002F099F9002002F096F973
:10199000502002F093F9002002F090F90C2002F0A0
:1019A0008DF9002002F08AF9172002F087F9002053
:1019B00002F084F9952002F081F9002002F07EF90E
:1019C000F32002F07BF9002002F078F9E62002F023
:1019D00075F9002002F072F9C52002F07BF932207F
:1019E00002F06CF9002002F069F9442002F066F977
:1019F000002002F063F9652002F060F9002002F097
:101A00005DF9762002F05AF9002002F057F988209B
:101A100002F054F9002002F051F9C62002F05AF900
:101A2000202002F04BF9002002F048F9172002F0C4
:101A300045F9002002F042F9012002F03FF90020B0
:101A400002F03CF9C72002F045F9002002F036F917
:101A5000002002F033F9002002F030F9002002F0FB
:101A60002DF9C82002F036F9002002F027F90020F5
:101A700002F024F9002002F021F9002002F01EF902
:101A8000C92002F027F9002002F018F9002002F026
:101A900015F9002002F012F9002002F00FF90020E1
:101AA00002F00CF9002002F009F9002002F006F91A
:101AB000002002F003F9002002F000F9002002F0FB
:101AC000FDF8002002F0FAF8002002F0F7F80020FC
:101AD00002F0F4F8002002F0F1F8002002F0EEF835
:101AE000002002F0EBF8E02002F0F4F8162002F0FB
:101AF000E5F8002002F0E2F81C2002F0DFF80020F8
:101B000002F0DCF8212002F0D9F8002002F0D6F82B
:101B1000362002F0D3F8002002F0D0F8462002F080
:101B2000CDF8002002F0CAF8522002F0C7F80020D9
:101B300002F0C4F8642002F0C1F8002002F0BEF800
:101B40007A2002F0BBF8002002F0B8F88B2002F0F7
:101B5000B5F8002002F0B2F8992002F0AFF80020AA
:101B600002F0ACF8A82002F0A9F8002002F0A6F8D4
:101B7000B92002F0A3F8002002F0A0F8C42002F07F
:101B80009DF8002002F09AF8CA2002F097F8002091
:101B900002F094F8D22002F091F8002002F08EF8C2
:101BA000D92002F08BF8002002F088F8E02002F043
:101BB00085F8002002F082F8F32002F07FF8002080
:101BC00002F07CF8E12002F085F8162002F076F8A9
:101BD000002002F073F81C2002F070F8002002F0E0
:101BE0006DF8222002F06AF8002002F067F8362033
:101BF00002F064F8002002F061F8452002F05EF87F
:101C0000002002F05BF8522002F058F8002002F0A9
:101C100055F8642002F052F8002002F04FF87A20C4
:101C200002F04CF8002002F049F88B2002F046F850
:101C3000002002F043F8992002F040F8002002F062
:101C40003DF8A82002F03AF8002002F037F8B92059
:101C500002F034F8002002F031F8C42002F02EF82F
:101C6000002002F02BF8CA2002F028F8002002F031
:101C700025F8D22002F022F8002002F01FF8D82028
:101C800002F01CF8002002F019F8E02002F016F82B
:101C9000002002F013F8F32002F010F8002002F008
:101CA0000DF8E22002F016F8052002F007F80020F7
:101CB00002F004F80B2002F001F8002001F0FEFF12
:101CC0001B2001F0FBFF002001F0F8FF342001F0A1
:101CD000F5FF002001F0F2FF442001F0EFFF0020AB
:101CE00001F0ECFF4F2001F0E9FF002001F0E6FFDA
:101CF000612001F0E3FF002001F0E0FF792001F016
:101D0000DDFF002001F0DAFF882001F0D7FF00207E
:101D100001F0D4FF972001F0D1FF002001F0CEFFA9
:101D2000A62001F0CBFF002001F0C8FFB72001F092
:101D3000C5FF002001F0C2FFC22001F0BFFF00205C
:101D400001F0BCFFC72001F0B9FF002001F0B6FF91
:101D5000D12001F0B3FF002001F0B0FFD62001F048
:101D6000ADFF002001F0AAFFDD2001F0A7FF002059
:101D700001F0A4FFF32001F0A1FF002001F09EFF7D
:101D8000E32001F0A7FF052001F098FF002001F0FB
:101D900095FF0A2001F092FF002001F08FFF1C2028
:101DA00001F08CFF002001F089FF332001F086FF55
:101DB000002001F083FF442001F080FF002001F0AB
:101DC0007DFF502001F07AFF002001F077FF6220B4
:101DD00001F074FF002001F071FF782001F06EFF28
:101DE000002001F06BFF882001F068FF002001F067
:101DF00065FF972001F062FF002001F05FFFA62041
:101E000001F05CFF002001F059FFB72001F056FF00
:101E1000002001F053FFC22001F050FF002001F02C
:101E20004DFFC72001F04AFF002001F047FFD120FD
:101E300001F044FF002001F041FFD52001F03EFFFA
:101E4000002001F03BFFDD2001F038FF002001F011
:101E500035FFF32001F032FF002001F02FFFE420D6
:101E600001F038FF012001F029FF002001F026FFDA
:101E7000012001F023FF002001F020FF022001F0EB
:101E80001DFF002001F01AFF2A2001F017FF00209B
:101E900001F014FF3C2001F011FF002001F00EFFC3
:101EA0004B2001F00BFF002001F008FF5D2001F046
:101EB00005FF002001F002FF742001F0FFFE00206A
:101EC00001F0FCFE842001F0F9FE002001F0F6FE96
:101ED000932001F0F3FE002001F0F0FEA22001F0BB
:101EE000EDFE002001F0EAFEB32001F0E7FE002045
:101EF00001F0E4FEBE2001F0E1FE002001F0DEFE74
:101F0000C42001F0DBFE002001F0D8FECD2001F05E
:101F1000D5FE002001F0D2FED32001F0CFFE00203C
:101F200001F0CCFEDD2001F0C9FE002001F0C6FE6C
:101F3000F32001F0C3FE002001F0C0FEE52001F017
:101F4000C9FE002001F0BAFE002001F0B7FE00201B
:101F500001F0B4FE002001F0B1FE022001F0AEFE5F
:101F6000002001F0ABFE292001F0A8FE002001F0C6
:101F7000A5FE3C2001F0A2FE002001F09FFE4B20B8
:101F800001F09CFE002001F099FE5D2001F096FE1C
:101F9000002001F093FE742001F090FE002001F07B
:101FA0008DFE842001F08AFE002001F087FE932040
:101FB00001F084FE002001F081FEA22001F07EFEEF
:101FC000002001F07BFEB32001F078FE002001F03C
:101FD00075FEBE2001F072FE002001F06FFEC420ED
:101FE00001F06CFE002001F069FECD2001F066FEDC
:101FF000002001F063FED32001F060FE002001F01C
:102000005DFEDC2001F05AFE002001F057FEF320B7
:1020100001F054FE002001F051FEE62001F05AFECE
:10202000112001F04BFE002001F048FE342001F0A9
:1020300045FE002001F042FE562001F03FFE002048
:1020400001F03CFE762001F039FE002001F036FE62
:10205000772001F033FE002001F030FE662001F011
:102060002DFE002001F02AFE882001F027FE00202E
:1020700001F024FE992001F021FE002001F01EFE57
:10208000BB2001F01BFE002001F018FE992001F09A
:1020900015FE002001F012FE662001F00FFE002068
:1020A00001F00CFE552001F009FE002001F006FEB3
:1020B000552001F003FE002001F000FE452001F054
:1020C000FDFD002001F0FAFD432001F0F7FD0020A6
:1020D00001F0F4FD442001F0F1FD002001F0EEFDDF
:1020E000E72001F0F7FD322001F0E8FD002001F0CB
:1020F000E5FD552001F0E2FD002001F0DFFD762036
:1021000001F0DCFD002001F0D9FD662001F0D6FDD4
:10211000002001F0D3FD672001F0D0FD002001F088
:10212000CDFD672001F0CAFD002001F0C7FD87202A
:1021300001F0C4FD002001F0C1FD992001F0BEFDB9
:10214000002001F0BBFDBB2001F0B8FD002001F034
:10215000B5FD992001F0B2FD002001F0AFFD772020
:1021600001F0ACFD002001F0A9FD442001F0A6FD26
:10217000002001F0A3FD562001F0A0FD002001F099
:102180009DFD232001F09AFD002001F097FD3320F2
:1021900001F094FD002001F091FD452001F08EFD3D
:1021A000002001F08BFDE82001F094FD002001F0FB
:1021B00085FD002001F082FD992001F07FFD0020C7
:1021C00001F07CFD872001F079FD002001F076FD13
:1021D000882001F073FD002001F070FD772001F0F0
:1021E0006DFD002001F06AFD662001F067FD002012
:1021F00001F064FD882001F061FD002001F05EFD2A
:10220000AA2001F05BFD002001F058FDBB2001F089
:1022100055FD002001F052FD992001F04FFD0020F6
:1022200001F04CFD662001F049FD002001F046FD63
:10223000552001F043FD002001F040FD552001F044
:102240003DFD002001F03AFD442001F037FD002063
:1022500001F034FD442001F031FD002001F02EFD9D
:10226000552001F02BFD002001F028FDE92001F0B0
:1022700031FDAA2001F022FD002001F01FFD002009
:1022800001F01CFD002001F019FD002001F022FDED
:10229000AA2001F013FDCF2001F01CFD002001F069
:1022A0000DFD002001F00AFD002001F007FD0020D7
:1022B00001F004FD002001F001FD002001F0FEFC12
:1022C000002001F0FBFC002001F0F8FC002001F0F0
:1022D000F5FC002001F0F2FC002001F0EFFC0020F2
:1022E00001F0ECFC002001F0E9FC002001F0E6FC2C
:1022F000002001F0E3FC002001F0E0FC002001F0F0
:10230000DDFCF02001F0E6FC002001F0D7FC5020BD
:1023100001F0D4FC002001F0D1FC002001F0CEFC43
:10232000002001F0CBFCF32001F0D4FC002001F0F0
:10233000C5FCF92001F0CEFC062001F0BFFC102006
:1023400001F0BCFC292001F0B9FC002001F0B6FC32
:102350003A2001F0BFFC552001F0B0FC112001F043
:10236000B9FC642002F0EAFD292001F0B3FC35201D
:1023700001F0B0FC002001F0A1FC512001F0AAFC0A
:10238000FF2001F09BFC532001F0A4FC2C2001F065
:1023900095FC552001F09EFC822001F08FFC2C2042
:1023A00001F098FC01F048B8FE48808845F21051D1
:1023B00088427DD155214FF4704001F0A1FCAA2143
:1023C0004FF2010001F09CFC52214FF2020001F09B
:1023D00097FC08214FF2030001F092FC01214FF21B
:1023E000040001F08DFC0D214FF4304001F088FC19
:1023F0000D214BF2010001F083FC0D214BF2020094
:1024000001F07EFC34214FF4364001F079FC342198
:102410004BF2016001F074FC34214BF2026001F0D8
:102420006FFC0D214FF4314001F06AFC0D214BF29D
:10243000011001F065FC0D214BF2021001F060FC6F
:1024400034214FF4374001F05BFC34214BF2017032
:1024500001F056FC34214BF2027001F051FC0021D6
:102460004FF4324001F04CFC00214BF2012001F00E
:1024700047FC00214BF2022001F042FC24214FF4E2
:10248000384001F03DFC24214BF6010001F038FCFE
:1024900024214BF6020001F033FC01214FF43F40B0
:1024A00001F02EFC0F214FF4334001F029FC00E035
:1024B000FDE30F214BF2013001F022FC0F214BF222
:1024C000023001F01DFC34214FF4394001F018FCBA
:1024D00034214BF6011001F013FC34214BF60210AD
:1024E00001F00EFC08214FF4354001F009FC0821F1
:1024F0004BF2015001F004FC08214BF2025001F0B4
:10250000FFFB03214FF4424001F0FAFB24214FF47A
:102510003A4001F0F5FB24214BF6012001F0F0FBDD
:1025200024214BF6022001F0EBFB00214FF43C404C
:1025300001F0E6FB78214BF6014001F0E1FB0021C0
:102540004BF6024001F0DCFB00214FF43D4001F06E
:10255000D7FB78214BF6015001F0D2FB00214BF65E
:10256000025001F0CDFB00214FF43E4001F0C8FBCA
:1025700064214BF6016001F0C3FB00214FF4514090
:1025800001F0BEFB33214DF2011001F0B9FB002137
:102590004DF2021001F0B4FB34214DF2031001F0B2
:1025A000AFFB00214DF2041001F0AAFB3A214DF2DD
:1025B000051001F0A5FB00214DF2061001F0A0FB73
:1025C0004A214DF2071001F09BFB00214DF208104B
:1025D00001F096FB5C214DF2091001F091FB002106
:1025E0004DF20A1001F08CFB81214DF20B1001F02D
:1025F00087FB00214DF20C1001F082FBA6214DF269
:102600000D1001F07DFB00214DF20E1001F078FB62
:10261000E5214DF20F1001F073FB01214DF2101076
:1026200001F06EFB13214DF2111001F069FB012145
:102630004DF2121001F064FB54214DF2131001F021
:102640005FFB01214DF2141001F05AFB82214DF283
:10265000151001F055FB01214DF2161001F050FB51
:10266000CA214DF2171001F04BFB02214DF2181058
:1026700001F046FB00214DF2191001F041FB02214F
:102680004DF21A1001F03CFB01214DF21B1001F03C
:1026900037FB02214DF21C1001F032FB34214DF2C8
:1026A0001D1001F02DFB02214DF21E1001F028FB40
:1026B00067214DF21F1001F023FB02214DF2201083
:1026C00001F01EFB84214DF2211001F019FB0221C3
:1026D0004DF2221001F014FBA4214DF2231001F061
:1026E0000FFB02214DF2241001F00AFBB7214DF23D
:1026F000251001F005FB02214DF2261001F000FB30
:10270000CF214DF2271001F0FBFA02214DF22810E3
:1027100001F0F6FADE214DF2291001F0F1FA022162
:102720004DF22A1001F0ECFAF2214DF22B1001F0DB
:10273000E7FA02214DF22C1001F0E2FAFE214DF2EF
:102740002D1001F0DDFA03214DF22E1001F0D8FA20
:1027500010214DF22F1001F0D3FA03214DF2301069
:1027600001F0CEFA33214DF2311001F0C9FA032104
:102770004DF2321001F0C4FA6D214DF2331001F028
:10278000BFFA00214FF4524001F0BAFA33214DF262
:10279000012001F0B5FA00214DF2022001F0B0FA5B
:1027A000342101E0FC0200204DF2032001F0A8FAE0
:1027B00000214DF2042001F0A3FA3A214DF2052048
:1027C00001F09EFA00214DF2062001F099FA4A210B
:1027D0004DF2072001F094FA00214DF2082001F09B
:1027E0008FFA5C214DF2092001F08AFA00214DF2A6
:1027F0000A2001F085FA81214DF20B2001F080FAC8
:1028000000214DF20C2001F07BFAA6214DF20D20A3
:1028100001F076FA00214DF20E2001F071FAE52167
:102820004DF20F2001F06CFA01214DF2102001F061
:1028300067FA13214DF2112001F062FA01214DF2E5
:10284000122001F05DFA54214DF2132001F058FAE4
:1028500001214DF2142001F053FA82214DF215208E
:1028600001F04EFA01214DF2162001F049FACA2179
:102870004DF2172001F044FA02214DF2182001F028
:102880003FFA00214DF2192001F03AFA02214DF2EF
:102890001A2001F035FA01214DF21B2001F030FA27
:1028A00002214DF21C2001F02BFA34214DF21D20A3
:1028B00001F026FA02214DF21E2001F021FA6721D3
:1028C0004DF21F2001F01CFA02214DF2202001F0F0
:1028D00017FA84214DF2212001F012FA02214DF263
:1028E000222001F00DFAA4214DF2232001F008FA74
:1028F00002214DF2242001F003FAB7214DF22520E8
:1029000001F0FEF902214DF2262001F0F9F9CF2164
:102910004DF2272001F0F4F902214DF2282001F0B8
:10292000EFF9DE214DF2292001F0EAF902214DF202
:102930002A2001F0E5F9F2214DF22B2001F0E0F917
:1029400002214DF22C2001F0DBF9FE214DF22D2069
:1029500001F0D6F903214DF22E2001F0D1F910211A
:102960004DF22F2001F0CCF903214DF2302001F07F
:10297000C7F933214DF2312001F0C2F903214DF2A4
:10298000322001F0BDF96D214DF2332001F0B8F98C
:1029900000214FF4534001F0B3F933214DF20130DF
:1029A00001F0AEF900214DF2023001F0A9F9342115
:1029B0004DF2033001F0A4F900214DF2043001F092
:1029C0009FF93A214DF2053001F09AF900214DF2BC
:1029D000063001F095F94A214DF2073001F090F9E7
:1029E00000214DF2083001F08BF95C214DF20930E5
:1029F00001F086F900214DF20A3001F081F98121C0
:102A00004DF20B3001F07CF900214DF20C3001F059
:102A100077F9A6214DF20D3001F072F900214DF247
:102A20000E3001F06DF9E5214DF20F3001F068F93B
:102A300001214DF2103001F063F913214DF21130F4
:102A400001F05EF901214DF2123001F059F95421E3
:102A50004DF2133001F054F901214DF2143001F020
:102A60004FF982214DF2153001F04AF901214DF262
:102A7000163001F045F9CA214DF2173001F040F946
:102A800002214DF2183001F03BF900214DF21930CE
:102A900001F036F902214DF21A3001F031F901212D
:102AA0004DF21B3001F02CF902214DF21C3001F0E7
:102AB00027F934214DF21D3001F022F902214DF2A7
:102AC0001E3001F01DF967214DF21F3001F018F999
:102AD00002214DF2203001F013F984214DF2213012
:102AE00001F00EF902214DF2223001F009F9A42182
:102AF0004DF2233001F004F902214DF2243001F0AF
:102B0000FFF8B7214DF2253001F0FAF802214DF21D
:102B1000263001F0F5F8CF214DF2273001F0F0F822
:102B200002214DF2283001F0EBF8DE214DF2293080
:102B300001F0E6F802214DF22A3001F0E1F8F2212D
:102B40004DF22B3001F0DCF802214DF22C3001F077
:102B5000D7F8FE214DF22D3001F0D2F803214DF2CD
:102B60002E3001F0CDF810214DF22F3001F0C8F8D1
:102B700003214DF2303001F0C3F833214DF23130F2
:102B800001F0BEF803214DF2323001F0B9F86D21A9
:102B90004DF2333001F0B4F800214FF4544001F00D
:102BA000AFF833214DF2014001F0AAF800214DF2B7
:102BB000024001F0A5F834214DF2034001F0A0F8E5
:102BC00000214DF2044001F09BF83A214DF20540FE
:102BD00001F096F800214DF2064001F091F84A21EB
:102BE0004DF2074001F08CF800214DF2084001F051
:102BF00087F85C214DF2094001F082F800214DF286
:102C00000A4001F07DF881214DF20B4001F078F887
:102C100000214DF20C4001F073F8A6214DF20D4059
:102C200001F06EF800214DF20E4001F069F8E52147
:102C30004DF20F4001F064F801214DF2104001F017
:102C40005FF813214DF2114001F05AF801214DF2C5
:102C5000124001F055F854214DF2134001F050F8A4
:102C600001214DF2144001F04BF882214DF2154044
:102C700001F046F801214DF2164001F041F8CA2159
:102C80004DF2174001F03CF802214DF2184001F0DE
:102C900037F800214DF2194001F032F802214DF2CF
:102CA0001A4001F02DF801214DF21B4000E005E330
:102CB00001F026F802214DF21C4001F021F83421E8
:102CC0004DF21D4001F01CF802214DF21E4001F0B2
:102CD00017F867214DF21F4001F012F802214DF262
:102CE000204001F00DF884214DF2214001F008F858
:102CF00002214DF2224001F003F8A4214DF22340BD
:102D000000F0FEFF02214DF2244000F0F9FFB72150
:102D10004DF2254000F0F4FF02214DF2264000F074
:102D2000EFFFCF214DF2274000F0EAFF02214DF2E4
:102D3000284000F0E5FFDE214DF2294000F0E0FFE1
:102D400002214DF22A4000F0DBFFF2214DF22B4030
:102D500000F0D6FF02214DF22C4000F0D1FFFE2101
:102D60004DF22D4000F0CCFF03214DF22E4000F03B
:102D7000C7FF10214DF22F4000F0C2FF03214DF29A
:102D8000304000F0BDFF33214DF2314000F0B8FF7C
:102D900003214DF2324000F0B3FF6D214DF233407C
:102DA00000F0AEFF00214FF4554000F0A9FF3321A1
:102DB0004DF2015000F0A4FF00214DF2025000F04E
:102DC0009FFF34214DF2035000F09AFF00214DF295
:102DD000045000F095FF3A214DF2055000F090FFAD
:102DE00000214DF2065000F08BFF4A214DF20750B2
:102DF00000F086FF00214DF2085000F081FF5C21B9
:102E00004DF2095000F07CFF00214DF20A5000F015
:102E100077FF81214DF20B5000F072FF00214DF23F
:102E20000C5000F06DFFA6214DF20D5000F068FF30
:102E300000214DF20E5000F063FFE5214DF20F50DE
:102E400000F05EFF01214DF2105000F059FF1321F8
:102E50004DF2115000F054FF01214DF2125000F0DC
:102E60004FFF54214DF2135000F04AFF01214DF263
:102E7000145000F045FF82214DF2155000F040FF44
:102E800001214DF2165000F03BFFCA214DF21750C0
:102E900000F036FF02214DF2185000F031FF002102
:102EA0004DF2195000F02CFF02214DF21A5000F0A3
:102EB00027FF01214DF21B5000F022FF02214DF2AD
:102EC0001C5000F01DFF34214DF21D5000F018FF82
:102ED00002214DF21E5000F013FF67214DF21F50EA
:102EE00000F00EFF02214DF2205000F009FF842176
:102EF0004DF2215000F004FF02214DF2225000F06B
:102F0000FFFEA4214DF2235000F0FAFE02214DF203
:102F1000245000F0F5FEB7214DF2255000F0F0FEF0
:102F200002214DF2265000F0EBFECF214DF227504A
:102F300000F0E6FE02214DF2285000F0E1FEDE2115
:102F40004DF2295000F0DCFE02214DF22A5000F033
:102F5000D7FEF2214DF22B5000F0D2FE02214DF2AD
:102F60002C5000F0CDFEFE214DF22D5000F0C8FE99
:102F700003214DF22E5000F0C3FE10214DF22F50D0
:102F800000F0BEFE03214DF2305000F0B9FE3321B7
:102F90004DF2315000F0B4FE03214DF2325000F0FA
:102FA000AFFE6D214DF2335000F0AAFE00214FF428
:102FB000564000F0A5FE33214DF2016000F0A0FE66
:102FC00000214DF2026000F09BFE34214DF20360BF
:102FD00000F096FE00214DF2046000F091FE3A21CF
:102FE0004DF2056000F08CFE00214DF2066000F00D
:102FF00087FE4A214DF2076000F082FE00214DF26B
:10300000086000F07DFE5C214DF2096000F078FE62
:1030100000214DF20A6000F073FE81214DF20B6039
:1030200000F06EFE00214DF20C6000F069FEA6215A
:103030004DF20D6000F064FE00214DF20E6000F0D4
:103040005FFEE5214DF20F6000F05AFE01214DF2C6
:10305000106000F055FE13214DF2116000F050FE9B
:1030600001214DF2126000F04BFE54214DF213602D
:1030700000F046FE01214DF2146000F041FE822175
:103080004DF2156000F03CFE01214DF2166000F09B
:1030900037FECA214DF2176000F032FE02214DF2D8
:1030A000186000F02DFE00214DF2196000F028FE9E
:1030B00002214DF21A6000F023FE01214DF21B6047
:1030C00000F01EFE02214DF21C6000F019FE3421BA
:1030D0004DF21D6000F014FE02214DF21E6000F062
:1030E0000FFE67214DF21F6000F00AFE02214DF233
:1030F000206000F005FE84214DF2216000F000FE0A
:1031000002214DF2226000F0FBFDA4214DF223606C
:1031100000F0F6FD02214DF2246000F0F1FDB72130
:103120004DF2256000F0ECFD02214DF2266000F02A
:10313000E7FDCF214DF2276000F0E2FD02214DF2C4
:10314000286000F0DDFDDE214DF2296000F0D8FDA1
:1031500002214DF22A6000F0D3FDF2214DF22B60E6
:1031600000F0CEFD02214DF22C6000F0C9FDFE21E1
:103170004DF22D6000F0C4FD03214DF22E6000F0F1
:10318000BFFD10214DF22F6000F0BAFD03214DF27A
:10319000306000F0B5FD33214DF2316000F0B0FD3C
:1031A00003214DF2326000F0ABFD6D214DF2336032
:1031B00000F0A6FD55214FF4704000F0A1FDAA21BA
:1031C0004FF2010000F09CFD52214FF2020000F08E
:1031D00097FD08214FF2030000F092FD00214FF20D
:1031E000040000F08DFDCC214FF4314000F088FD4B
:1031F00000214BF2011000F083FD05214FF4364011
:1032000000F07EFD70214FF4374000F079FD702111
:103210004BF2017000F074FD01214FF4384000F0D2
:103220006FFD03214BF6010000F06AFD03214BF610
:10323000020000F065FD03214BF6030000F060FD85
:1032400002214FF43C4000F05BFD00214BF60140B1
:1032500000F056FD00214BF6024000F051FDD02158
:103260004FF4494000F04CFD02214CF6011000F0F3
:1032700047FD50214CF6021000F042FD50214CF663
:10328000031000F03DFD50214CF6041000F038FD15
:1032900000214FF4545000F033FD55214FF4685095
:1032A00000F02EFD4FF4885000F014FD782001F05E
:1032B00061FE4FF4245000F00DFDBDE07E48808893
:1032C00041F663118842F8D1E22000F003FD1D2091
:1032D00000F0F4FC022000F0F1FC042000F0EEFC11
:1032E000642001F047FEE02000F0F4FC012000F033
:1032F000E5FC0A2001F022FEE02000F0EBFC0320B8
:1033000000F0DCFC0C2001F019FE012000F0E2FCD2
:103310000A2001F013FEE62000F0DCFC2F2000F074
:10332000CDFCFF2000F0CAFCFF2000F0C7FCB0205D
:1033300000F0D0FC202000F0C1FC002000F0BEFC1A
:10334000032000F0BBFC40F21F3000F0B7FC01206E
:1033500000F0B4FC40F2DF1000F0B0FC002000F000
:10336000ADFCB42000F0B6FC042000F0A7FC40F255
:103370001F4000F0A3FC002000F0A0FC2E2000F075
:103380009DFC002000F09AFC002000F097FC00203B
:1033900000F094FC002000F091FCB62000F09AFCB4
:1033A000022000F08BFC4FF4037000F087FC00203B
:1033B00000F084FC172000F081FC152000F07EFC5A
:1033C000002000F07BFC002000F078FCF02000F0F2
:1033D00081FC032000F072FC292000F07BFCD0204F
:1033E00000F078FC002000F069FCBE2000F072FCC8
:1033F000052000F063FCFE2000F060FC012000F0DE
:103400005DFC002000F05AFC002000F057FC00207A
:1034100000F054FCB82000F05DFC032000F04EFCEE
:10342000012000F04BFCBA2000F054FC012000F019
:1034300045FC642000F0C2F81F48808849F2413101
:10344000884211D01C48808845F2103188420BD048
:103450001948808845F21051884205D01648808866
:1034600041F6631188421CD11448006820F00F0017
:103470004FF02041C1F804010846D0F8040120F4BF
:103480007060C1F804010846D0F8040140F004005F
:10349000C1F804010846D0F8040140F48060C1F886
:1034A00004010020FDF7DAFA0120054908604FF613
:1034B000FF70FDF7AFFA1CBDFC020020040100A064
:1034C0009482404210B50246012000E050430B1E9A
:1034D000A1F10104E1B2F9D110BD000008B5034823
:1034E00000880090BDF8000008BD000000000860E2
:1034F0002DE9F04105460E4600240027A0462D4840
:103500000088A84203DD2B484088B04202DC00203E
:10351000BDE8F0812848006820B13146284601F016
:103520005DF8F5E73146284600F0B2F92148808879
:1035300049F2413188420BD01E48808845F2103153
:10354000884205D01B48808841F66311884203D128
:103550002E2000F0BFFB09E01648808845F210518C
:10356000884203D14FF4385000F0B4FBFFF7B6FFA8
:1035700004461048808841F66311884201D12046F4
:10358000C6E7022001F0C6FDFFF7A8FF04460220AF
:1035900001F0C0FDFFF7A2FF8046E7B24FF6FF70D3
:1035A00000EA0727E012C002B91240EA411040EADF
:1035B000E820ADE7FC0200200C03002070B52DEDE3
:1035C000048B0446BE2000F085FB052000F076FB4E
:1035D000204603F006FA41EC190B9FED0E0B53EC5D
:1035E000102B03F011FA41EC180B03F0CDF985B262
:1035F000284600F063FB012000F060FBFF2000F094
:103600005DFB002000F05AFB002000F057FBBDECF2
:10361000048B70BD6666666666660440F0B5054656
:103620000024002799488079012805D1974880888F
:1036300041F66311884208D194488079F0B99348E3
:10364000808841F66311884218D1082D15D2DFE831
:1036500005F00406080A0C0E101206250DE00725D9
:103660000BE0042509E0052507E0012505E000251C
:1036700003E0032501E0022500BF00BF83488088E6
:1036800049F24131884211D08048808845F210319A
:1036900088420BD07D48808845F21051884205D081
:1036A0007A48808841F6631188427DD1082D1CD26A
:1036B000DFE805F00406090C0F12151800BF14E02E
:1036C00044F0800411E044F040040EE044F0C004F3
:1036D0000BE044F0200408E044F0600405E044F00E
:1036E000A00402E044F0E00400BF00BF6748808807
:1036F00045F21051884202D14FF4585700E0362766
:103700006248808845F2103188420DD05F48808839
:1037100045F21051884207D05C48808841F6631119
:10372000884201D044F008042146384600F0E8FA07
:103730005648808841F6631188421DD004F020006D
:1037400068B15248008851494988884214DA4F4884
:10375000068840884D490880084646800CE04B4862
:1037600000884A494988884206DD484806884088DA
:1037700046490880084646804448808845F21051F2
:10378000884254D14149488900F0A4FA002000F051
:1037900095FA3E494989491C88B200F09BFA0020FD
:1037A00000F08CFA394900E06FE04989891C88B241
:1037B00000F090FA35490988491EC1F30F2000F046
:1037C0007DFA32494989C91C88B200F083FA2F4931
:1037D0000978491EC8B200F071FA2C49888900F0B6
:1037E00079FA002000F06AFA28498989491C88B2D0
:1037F00000F070FA002000F061FA24498989891CE0
:1038000088B200F067FA21494988491EC1F30F20A8
:1038100000F054FA1D498989C91C88B200F05AFA8F
:103820001A498978491EC8B200F048FA2DE01749B4
:10383000488900F04FFA002000F040FA002000F024
:103840003DFA12490988491EC1F30F2000F036FAEB
:103850000E490978491EC8B200F030FA0B49888930
:1038600000F038FA002000F029FA002000F026FAD3
:1038700006494988491EC1F30F2000F01FFA034989
:103880008978491EC8B200F019FAF0BDFC02002088
:1038900010B502460C464B48808849F241318842B7
:1038A00005D04848808845F21031884214D14549F6
:1038B000488900F00FFA101200F000FAD0B200F0C0
:1038C000FDF94049888900F005FA201200F0F6F968
:1038D000E0B200F0F3F973E03A48808841F66311F2
:1038E000884247D137488079A8B936480088401EB9
:1038F000801A82B23349488900F0ECF9002000F0C8
:10390000DDF9002000F0DAF9101200F0D7F9D0B29A
:1039100000F0D4F916E02B49488900F0DBF91012C9
:1039200000F0CCF9D0B200F0C9F926490988491E47
:10393000C1F30F2000F0C2F922490978491EC8B22C
:1039400000F0BCF91F49888900F0C4F9201200F08A
:10395000B5F9E0B200F0B2F91A494988491EC1F33D
:103960000F2000F0ABF917498978491EC8B200F062
:10397000A5F925E01348808845F2105188421FD1EF
:103980001049488900F0A6F9101200F097F90D4986
:103990004989491C88B200F09DF9D0B200F08EF937
:1039A0000849888900F096F9201200F087F9054946
:1039B0008989491C88B200F08DF9E0B200F07EF9E7
:1039C00010BD0000FC0200202DE9F84F80460F4694
:1039D00016461C46BB462046E31704EB5373DB1028
:1039E00021464FEAE47C04EB5C7C4FEAEC0CA4EB50
:1039F000CC0CBCF1000F02D04FF0010C01E04FF0F5
:103A0000000C6344224604EBD27C4FEA6C0C03FBAF
:103A10000CF3DBB20093A6F12000C6B200255EE0F5
:103A20000C2C07D106EB46002F4901EB800010F863
:103A300005901BE0102C05D12C4800EB061010F867
:103A4000059013E0182C07D106EBC600284901EBBE
:103A5000800010F8059009E0202C05D1254800EBE6
:103A6000C61010F8059001E0BDE8F88F4FF0000A8D
:103A70002FE009F0800030B11F4839460268404607
:103A8000FDF78EF907E00A9828B91C483946026804
:103A90004046FDF785F94FEA49604FEA1069781C06
:103AA00087B217484088B84200DCDDE7A7EB0B007F
:103AB000A0420AD15F4608F101001FFA80F81048C1
:103AC0000088404500DCCFE706E00AF1010000F085
:103AD000FF0ABAF1080FCCDB00BF681CC5B2009822
:103AE00085429DDB00BFBFE7386C0008AC70000862
:103AF0009C760008F883000844000020480000205D
:103B0000FC0200202DE9FF4F81B0074691461E467A
:103B10000E9D4FF0000A002439E0301B401EC1B258
:103B20000A20FFF7CFFCB9FBF0F00A21B0FBF1F25D
:103B300001FB1208BAF1000F16D1701EA04213DD6E
:103B4000B8F1000F0ED10020AB4605EBDB71491038
:103B500001FB0471009088B22B4620220299FFF7E6
:103B600033FF12E04FF0010A0020AB4605EBDB719A
:103B7000491001FB0471009088B208F13001CAB20B
:103B80002B460299FFF720FF00BF601CC4B2B4426D
:103B9000C3DB05B0BDE8F08F2DE9F84F04460D46B4
:103BA00090469946DDE90A6704F0FF0A08EB040035
:103BB0001FFA80F809EB05001FFA80F916E044456A
:103BC00002DB5446A81985B24D4500DB14E0002005
:103BD00000903A78334629462046FFF7F5FE3046F6
:103BE00006EBD07104EB61018CB27F1C38787E2823
:103BF00002DC38782028E2DA00BFBDE8F88F2DE932
:103C0000FF4F83B0064692461F46DDE9104800206C
:103C1000029000254DE0781B401EC1B20A20FFF73C
:103C200051FCBAFBF0F00A21B0FBF1F201FB1209E2
:103C3000029850BB781EA84227DDB9F1000F22D1AF
:103C400008F0800078B108F00100A34604EBDB71B6
:103C5000491001FB0561009088B223463022049987
:103C6000FFF7B2FE0EE008F00100A34604EBDB71A3
:103C7000491001FB0561009088B223462022049977
:103C8000FFF7A2FE13E00120029008F00100A34616
:103C900004EBDB71491001FB0561009088B209F16A
:103CA0003001CAB223460499FFF78EFE00BF681C9C
:103CB000C5B2BD42AFDB07B0BDE8F08F01B5BDF8BE
:103CC00000000090BDF800000149088008BD000018
:103CD0000000086001B5BDF800000090BDF80000CC
:103CE0000149088008BD0000FEFF07600248008906
:103CF0000249088070470000FC020020FEFF0760B8
:103D0000024A1080921C118070470000FEFF07607D
:103D100018B5044606480094008B401E83B2044840
:103D2000C08A401E82B20021084600F08DF818BDFE
:103D30000C030020F0B503460C4615460021002078
:103D40000022214E366826F080561F4F3E6001E06B
:103D50004E1CB1B21C4E366806F000561EB141F63C
:103D6000FF76B142F4DB41F6FF76B14201D101208A
:103D700029E042EA831242EA0472134E8836326026
:103D8000361D366826F440360F4F8C373E603E466F
:103D9000366846EA05463E600B4E366846F0805669
:103DA000094F3E6001E04E1CB1B2074E366806F086
:103DB00000561EB941F6FF76B142F4DB41F6FF76BC
:103DC000B14200D10220F0BD0038024009494875D7
:103DD00030B98988074AD18211460988118308E0E1
:103DE000012806D103490988024AD18211468988EF
:103DF000118370470C03002070B5114B5B7D6BB1D4
:103E00000F4BDB690E4D2D6805FB01056B430C4D17
:103E10002D7D0C4E56F82550EA520FE0084B1D68D8
:103E20005B681B1A5B1E05FB0313054DED696B43B5
:103E3000034D2D7D034E56F82550EA5270BD00000B
:103E40000C0300204C0000202DE9F04F04460D46E5
:103E500016464FF0000CDFF8289199F81590B9F14B
:103E6000000F04D02046294632461F4611E028465E
:103E7000DFF80C91D9F80490A9EB0609A9F101012A
:103E80001A46DFF8FC90D9F80490A9EB0409A9F1CF
:103E90000107DFF8EC90B9F80090A2EB000A0AF1F4
:103EA000010AA9EB0A091FFA89F8DFF8D49099F8FA
:103EB0001490DFF8D0A05AF82990DFF8C4A0DAF8FF
:103EC0001CA0DFF8BCB0DBF800B00BFB010B0AFB59
:103ED0000B9EDFF8B490D9F8009049F40009DFF8A0
:103EE000A8A0CAF80090DFF8A490D9F8009029F0B3
:103EF0000109DFF898A0CAF800904FF44039CAF8D9
:103F000000904FF00209CAF83490D146C9F84080B9
:103F1000C9F83CE0A7EB010909F10109A2EB000A8D
:103F20000AF1010A49EA0A49DFF860A0CAF8449098
:103F3000DDF82490CAF83890D146D9F8009049F0BD
:103F40000109CAF8009005E00CF1010CBCF5001F56
:103F500000D308E0DFF83490D9F8049009F00209A2
:103F6000B9F1000FF0D000BFDFF82090D9F8089029
:103F700049F00209DFF814A0CAF80890BDE8F08FF4
:103F80000C0300204C0000203038024000B00240FA
:103F90007FB50024002500F0D1FA0546D34800681B
:103FA00040F08060D1490860D0481438006840F083
:103FB0000200CE49143908600846006840F4F070E9
:103FC00008600120022100230246CDE900102021D3
:103FD000C748FCF7AFFC0120032100230222CDE9F2
:103FE00000108102C348FCF7A5FC01200321002337
:103FF0000222CDE900104FF40C61BF48FCF79AFC97
:104000000120032100230222CDE900104FF47E415C
:10401000BA48FCF78FFC0120032100230222CDE9DE
:10402000001040F2F761B648FCF784FC0E220A212A
:10403000B048FCF75FFC0E220621AF48FCF75AFCA3
:104040000E220721AC48FCF755FC0E220B21AA4892
:10405000FCF750FC0E220921A848FCF74BFC0E226D
:104060000A21A648FCF746FC0E220B21A348FCF7C8
:1040700041FC0E220C21A148FCF73CFC0E220D2134
:104080009E48FCF737FC0E2211469C48FCF732FC98
:104090000E220F219948FCF72DFC0E220021984892
:1040A000FCF728FC0E2201219548FCF723FC0E2288
:1040B00002219348FCF71EFC0E2204219048FCF7D5
:1040C00019FC0E2205218E48FCF714FC0E22062155
:1040D0008B48FCF70FFC0E2207218948FCF70AFCED
:1040E0000E2209218648FCF705FC0E220A2184488D
:1040F000FCF700FC44F24230854218D14FF4F070D6
:10410000804908604FF48870486001200881488128
:10411000282088810820C88105200882082048823C
:10412000022204214FF49070FFF704FE50E047F2A2
:104130008400854218D14FF44870724908604FF4EA
:10414000F07048600120088148812E208881172066
:10415000C881D220088216204882012203214FF410
:10416000C670FFF7E7FD33E047F21600854219D12C
:104170004FF48060634908604FF416704860142063
:104180000881032048818C2088811420C881A020C8
:1041900008820C204882012202214FF4B470FFF7FC
:1041A000C9FD15E047F21800854207D14FF4A06021
:1041B000544908604FF44870486009E048F216001E
:1041C000854205D140114F4908604FF41670486090
:1041D000002400BF00BF00BF4B480460494840892D
:1041E000441E48480089401E44EA004446481038AE
:1041F0000460444840894349C9890844441E4148F1
:104200000089404989890844401E44EA00443E48E8
:104210000C3804603B4840893A49C9890844394907
:1042200049680844441E374800893649898908444A
:10423000344909880844401E44EA0044324808389A
:104240000460304840892F49C98908442D4949688C
:1042500008442C49498A0844441E2A4800892949AF
:10426000898908442749098808442649098A084455
:10427000401E44EA00442448001F046000202249F4
:1042800014310860012000F0D7F920482049086067
:1042900002201C49C861002007210622CDE9000246
:1042A000CDE902101A48FF2302220168002000F025
:1042B00035F81448808880B200901248008883B294
:1042C00000221146104600F09DF80E480088114962
:1042D00008800C4880884880002000F0A7F9012061
:1042E0000D490860801EFFF713FD7FBD4438024072
:1042F000000402400014024000180240001C02406A
:10430000002002400C03002018680140000000C09B
:104310004C000020FC020020948240422DE9F04134
:1043200006ACF0CCE0B9DFF878C0CCF80010DFF8CC
:1043300070C0ACF1180CCCF800200CF1040CCCF8D7
:10434000003047EA046CDFF85880A8F11008C8F87C
:1043500000C046EA052C08F10408C8F800C01DE0BA
:10436000DFF83CC00CF1800CCCF80010DFF830C056
:104370000CF1680CCCF800200CF1040CCCF80030E7
:1043800047EA046CDFF8188008F17008C8F800C02C
:1043900046EA052C08F10408C8F800C0BDE8F08121
:1043A000AC680140012910D130B9154A126842F0B9
:1043B0000102134B1A6019E0114A8032126842F070
:1043C00001020F4B80331A6010E079B930B90C4A02
:1043D000126822F001020A4B1A6007E0084A803294
:1043E000126822F00102064B80331A60044A603AD8
:1043F000126842F00102024B603B1A6070470000F5
:10440000846801402DE9F04782460F4690461E46DB
:10441000DDF820900025BAF1000F43D1B8194549C5
:104420000968C1F30B410844040442480068C0F322
:104430000B403844401C20433E497C31086008EB67
:1044400009003C490968C1F30A01084404043948D9
:104450000068C0F30A004044401C204335498031C5
:10446000086034488830006800F007050DB904245E
:104470000AE0012D01D1032406E0052D01D0062D0F
:1044800001D1012400E0022406FB04F0C01C06FB5D
:1044900004F140EA01402749A4310860081DC0F832
:1044A000009041E0B81923490968C1F30B41084461
:1044B000040420480068C0F30B403844401C2043EB
:1044C0001C49FC31086008EB09001A490968C1F36E
:1044D0000A010844040417480068C0F30A00404475
:1044E000401C20431449086013480830006800F05D
:1044F00007050DB904240AE0012D01D1032406E0CB
:10450000052D01D0062D01D1012400E0022406FB77
:1045100004F0C01C06FB04F140EA014006492431C6
:104520000860081DC0F8009001215046FFF73AFFCF
:10453000BDE8F0870C6801400C6901401CB50024FF
:104540002048006840F4A0701E4908600120002146
:104550000B460A46CDE9001040211B48FCF7EAF95A
:10456000012000210B460A46CDE90010842117489E
:10457000FCF7E0F916480068C4B21648D0F8080203
:1045800044EA4000C4B21448006844EA8000C4B25F
:1045900014B944F242301CBD012C02D147F2840010
:1045A000F9E7022C02D147F21600F4E7032C02D1FE
:1045B00047F21800EFE7042C02D148F21600EAE7B0
:1045C0000020E8E730380240001802400020024096
:1045D00018024342000044421C02444210B5024605
:1045E0001048407D68B10F48C0690E4B1B6803FB43
:1045F000012358430B4B1B7D0B4C54F82330185AA6
:1046000010BD084803684068801A401E03FB001074
:10461000044BDB695843034B1B7D034C54F8233098
:10462000185AEDE70C0300204C00002001490875E2
:10463000704700000C030020012806D107490968D3
:1046400041F00101054A116006E028B903490968F3
:1046500021F00101014A1160704700001868014013
:104660002DE9F0410746884614461D46284600F0CD
:1046700033F8C5F1040007FA00F60F20284100EADC
:104680000800064306F00F06E21704EBD26252114F
:10469000920002F1E022D2F800212146E31704EB58
:1046A000D3635B11A4EB431C012303FA0CF31A43FD
:1046B0002046E31704EBD3635B119B0003F1E02377
:1046C000C3F800210348005D40EA0610014908557F
:1046D000BDE8F08100E400E00146072323EA01027F
:1046E0001202054B18684FF6FF031840034B18439E
:1046F0001043014B186070470CED00E00000FA0514
:104700004A0A52020243014B1A60704708ED00E06A
:1047100010B50A48006800F4807040B1074800688E
:1047200020F480700549086005A0FBF7EBFD074801
:10473000006840F400300549086010BD0C280040B6
:10474000414C41524D2041210D0A0000143C0140D2
:10475000014600BF081100EB8000420001F00F008D
:104760001044C0B270470146002204E0501CC2B29F
:10477000A1F10A00C1B20A29F8DA100741EA106073
:1047800070470000F0B504460D4616461F4600234C
:1047900000BF00F0DFF80028FBD10A480368C3F32C
:1047A0000740FFF7D5FF2070C3F30420FFF7D0FFC9
:1047B000287003F03F00FFF7CBFF3070C3F34230A7
:1047C0003870F0BD04280040F0B504460D4616468A
:1047D0001F46002300BF00F0BDF80028FBD10A48A7
:1047E0000368C3F30540FFF7B3FF2070C3F306204F
:1047F000FFF7AEFF287003F07F00FFF7A9FF3070CE
:10480000C3F387503870F0BD002800404FF480316A
:104810000D48006800F0400008B1002070470A48C9
:10482000006840F08000084A106000E0491E29B18D
:104830000548006800F040000028F7D009B90120C1
:10484000ECE70020EAE700000C28004001460022C7
:10485000024800EB810210687047000050280040B9
:104860002DE9F04106460C4615460027CA2014499A
:10487000086053200860FFF7C9FF10B10120BDE8B0
:10488000F0813046FFF76FFF000403F0070140EAB4
:1048900041382046FFF767FF48EA00282846FFF71F
:1048A00062FF48EA000706482038076004481838C5
:1048B000006820F080000249183908600020DEE717
:1048C000242800402DE9F04106460C4615460027F5
:1048D000CA201449086053200860FFF797FF10B101
:1048E0000120BDE8F0813046FFF73DFF000403F0F2
:1048F000010140EA81582046FFF735FF48EA0028C9
:104900002846FFF730FF48EA0007064824380760CA
:1049100004481838006820F08000024918390860FF
:104920000020DEE7242800400848006800F480608A
:1049300028B10648006820F48060044908600448F3
:10494000006840F480000249086070470C2800406D
:10495000143C01400F49CA200F4A106053201060D8
:104960000D481838006820F020000B4A183A1060F3
:1049700000E0491E31B108481838006800F02000F6
:104980000028F6D009B901207047FF20024A1060C4
:104990000020F9E7FFFF0F00242800400022024B0F
:1049A00003EB80021160704750280040F0B50446C8
:1049B0000D46002600212943C4F104070120B84018
:1049C000014341EA421141EA43210948016005E0FF
:1049D000761CB6F5001F01D30120F0BD0448083055
:1049E000006800F020000028F2D100BFF5E70000C9
:1049F000500100A0F0B504460D4616461F46144867
:104A0000006840F001001249086000201049083198
:104A100008600F4800680F4908400D4908600E48BB
:104A2000091D0860081F006820F48020091F086025
:104A3000002007490C3108603B4632462946204693
:104A400000F00CF800210846FFF75AFEF0BD000008
:104A500000380240FFFFF6FE10300024F0B5044697
:104A60000D46002100203D4E366846F480363B4F0F
:104A70003E6001E04E1CB1B2384E366806F4003696
:104A80001EB941F6FF76B142F4DB41F6FF76B14242
:104A900001D1012060E0314E4036366846F0805644
:104AA0002E4F40373E602E4E366846F440462C4F1F
:104AB0003E602A4E0836366846F41446274F0837BB
:104AC0003E60264E366826F08076244F3E6045EAEA
:104AD00084160127C7EB520746EA074646EA0366F3
:104AE00046F480061D4F3F1D3E603E1F366846F06F
:104AF00080763F1F3E6000BF184E366806F0007695
:104B0000002EF9D0174E366846F48076154F3E6079
:104B10003E46366846F400763E603E46366846F4C9
:104B200080663E603E46366846F005063E600B4EA7
:104B30000836366826F00306084F08373E603E46C2
:104B4000366846F002063E6000BF044E08363668FE
:104B500006F00C06082EF8D1F0BD00000038024027
:104B600000700040003C024070B5144C14480068CE
:104B700000F0010000B31248006820F00100104965
:104B8000086010481049097850F8215005E0606825
:104B9000284008B120688047083420680028F6D1F2
:104BA00009480078401C08490870084600780A281F
:104BB00001DB0020087000BF70BD00001000002065
:104BC00010040040106C00080C00002010B50C48C8
:104BD000006800F0010058B10A49086980470020C8
:104BE0000749143108604FF47A7005491C31086098
:104BF0000348006820F001000149086010BD000072
:104C000010080040400100203649096888B2364942
:104C1000097801F08001002960D100F00101D1B1D3
:104C20003149097801F04001A9B12F49097801F013
:104C30003F013F290AD12C49097841F080012A4AD5
:104C400011704FF0FF31294A116004E026490978BC
:104C5000491C254A117000F00201E9B32249097884
:104C600001F0400199B12049097841F080011E4AC4
:104C700011701C49243109681C4A1160194910310E
:104C8000096821F00201174A1032116026E0002164
:104C9000154A1170154A11601349097841F0400115
:104CA000114A11700F491039096821F001010D4AAC
:104CB000103A116000210B4A14321160111F09686B
:104CC00041F00201121F116006491039096841F0D4
:104CD0000101044A103A00E000E011600021014A9D
:104CE00011607047100C00403E0000204000002082
:104CF00070B505460C461048006840F004000E49A7
:104D000008600E480560001F04600C4820380068E9
:104D100040F0010009492039086008482C38006833
:104D200040F0010005492C39086002231E220321AE
:104D30000846FFF795FC70BD403802402C08004043
:104D40001C49096801F0200109B31A494968C8B231
:104D50001949098801F40041C9B91749098801F4C2
:104D6000804161B10A2803D00021134A118020E05C
:104D70001149098841F400410F4A118019E00D28BA
:104D800006D10D49098841F480410B4A118010E099
:104D900009490988C1F30D01084A50540649098898
:104DA000491C054A118011460988C72901DD0021E7
:104DB00011807047001001400800002034020020DC
:104DC00030380A2801D2012070470020704700BF08
:104DD000704700001CB52E48006840F001002C49C7
:104DE00008600220032100230246CDE900100121C2
:104DF0002848FBF79FFD022200212648FBF77AFD99
:104E000023481030006840F0080021491031086044
:104E10005920214908604FF0FF30091D08601E48E5
:104E2000283800681C49283908601B481038006879
:104E30001949103908600846006840F00100086010
:104E400015480838006814490839086008460068A1
:104E500040F00100086010482838006840F0010068
:104E60000D49283908600C481C38006840F00200E1
:104E700009491C3908600846006840F001000860D4
:104E80000223322200211846FFF7EAFB1CBD000076
:104E90003038024000000240280C00402DE9F0416B
:104EA00000BF1248007800F08000E8B10F48007899
:104EB00000F03F00C51704464FF0FF33002621469F
:104EC000A1FB030705FB037204FB06250446084803
:104ED0000068241845F1000522462B4605A0FBF783
:104EE00011FA002001490870BDE8F0813E00002061
:104EF00040000020484947483A256C6C642075738F
:104F00000D0A00004FF0E021096921F004014FF083
:104F1000E0221161C21700EB5272C2F3C702054BC7
:104F20001A704FF47A714143C1F3CF01024A1180E4
:104F300070470000000000200200002070B5044609
:104F40004FF4077094FBF0F0C6B24FF4077094FB77
:104F5000F0F100FB114085B205E04FF4077000F05E
:104F600027F8701EC6B2002EF7D115B1284600F002
:104F70001FF870BD01460D4A12784A434FF0E023F6
:104F80005A6100229A6101221A6100BF4FF0E022AB
:104F9000106900F001021AB100F48032002AF5D045
:104FA00000224FF0E0231A619A6170470000002050
:104FB00001460D4A12884A434FF0E0235A6100220D
:104FC0009A6101221A6100BF4FF0E022106900F0DF
:104FD00001021AB100F48032002AF5D000224FF00D
:104FE000E0231A619A6170470200002000BF054A61
:104FF000126802F04002002AF9D0C2B2014B5A6096
:1050000070470000001001401CB50A48006840F0DD
:105010000200084908600120032100230246CDE96F
:10502000001002210448FBF785FC012003490860B9
:105030001CBD00003038024000040240848240421F
:10504000014908607047000084824042114800789E
:1050500098B911480078012803D100200F49086051
:1050600002E001200D4908600B480078012801D0BA
:10507000012000E000200849087006480078401C24
:1050800004490870084600780A2801DB00200870EF
:10509000704700000A0000200B000020848240427C
:1050A0001CB51AA400250823022219214FF4B4705C
:1050B000FFF7A0FCB420FFF725FF4FF4E1315A20A1
:1050C00000F03CFBFFF7A0FF00F00AFB00F02AF81D
:1050D000FFF780FE00F098F900F094F9FBF72AFF43
:1050E00000F0B2F80A4841685A20884720208423FB
:1050F000DC22F021CDE900046420FEF74DFD04E040
:105100000620FFF71BFF681CC5B2F9E76C6C6A004C
:105110004001002000BF011EA0F10102D0B2FAD16F
:10512000704700001CB52E48006840F002002C4972
:1051300008600120032100230222CDE9001001466E
:105140002848FBF7F7FB032200212648FBF7D2FB98
:1051500023481430006840F00200214914310860EF
:1051600042F22730204908606320091D08600A20A8
:105170001D49103108601C481038006840F4C040D8
:105180001949103908600846006840F4006008605A
:1051900015480838006840F0400013490839086095
:1051A0000846006840F0200008600846006840F0AB
:1051B000100008600C481C30006840F400400A49A8
:1051C0001C31086008482838006840F08000064913
:1051D000283908600846006840F0010008601CBDDE
:1051E0003038024000040240280401401148007891
:1051F00068B911480078632805DA0F480078401C28
:105200000D49087010E001200A4908700CE00A48B6
:105210000078002805DD08480078401E064908701F
:1052200002E0002003490870034800780349086041
:105230007047000039000020380000203804014089
:10524000014608687047000010B541F6FF74384801
:10525000006840F08050364908603648006840F4E5
:105260008070344908600020FFF7F0FA4AF2A0018C
:1052700088425AD02E483030006840F001002C4956
:105280003031086004E0601E84B20520FFF756FE4E
:1052900034B127483030006800F002000028F2D016
:1052A0000CB9012010BD22483030006840F48070F5
:1052B0001F49303108600846006840F4004008602B
:1052C000CA201D49086053200860FFF79FFA08B103
:1052D0000220E7E7FF2018491439086008460068F3
:1052E00040F4FE00086014481C38006820F04000BC
:1052F00011491C390860081D006820F08000091D54
:105300000860FF200C490860002332221921102078
:10531000FFF7D8FA072302220C211220FFF7A0FA88
:105320004AF2A0010020FFF739FB0020BAE7000095
:1053300040380240007000402428004000B595B07D
:1053400011AB12AA13A914A8FFF73EFA9DF8480062
:1053500000909DF84C309DF850201DA103A8FAF74D
:10536000DDFF03A810210B46D222CDE900108C21CD
:105370001E20FEF711FC0DAB0EAA0FA910A8FFF717
:1053800001FA9DF8380000909DF83C309DF84020CF
:1053900014A103A8FAF7C2FF03A810210B46D222DA
:1053A000CDE90010A0211E20FEF7F6FB9DF8342069
:1053B00012A103A8FAF7B2FF03A810210B46D222CC
:1053C000CDE90010B4211E20FEF7E6FB15B000BDAC
:1053D00054696D653A253032643A253032643A2595
:1053E00030326400446174653A3230253032642DC5
:1053F000253032642D253032640000005765656B1E
:105400003A256400704700007CB500240025002682
:10541000A948006840F00100A7490860A64808387C
:10542000006840F07C00A44908390860012003218D
:1054300000230222CDE900100D21A048FBF77AFAE3
:105440000120032100230222CDE900104CF2037158
:105450009B48FBF76FFA0120032100230222CDE9CC
:1054600000104FF683719748FBF764FA012003217F
:1054700000230222CDE900104FF63F019248FBF7CE
:1054800059FA0120032100230222CDE9001048F23D
:1054900037118E48FBF74EFA0C2200218748FBF7A4
:1054A00029FA0C2202218548FBF724FA0C22032159
:1054B0008248FBF71FFA0C2200218148FBF71AFAF9
:1054C0000C2201217E48FBF715FA0C2208217C48AA
:1054D000FBF710FA0C2209217948FBF70BFA0C2292
:1054E0000A217748FBF706FA0C220E217448FBF7D5
:1054F00001FA0C220F217248FBF7FCF90C22002163
:105500007048FBF7F7F90C2201216E48FBF7F2F91E
:105510000C2207216B48FBF7EDF90C2208216948A2
:10552000FBF7E8F90C2209216648FBF7E3F90C22A6
:105530000A216448FBF7DEF90C220B216148FBF7D6
:10554000D9F90C2211465F48FBF7D4F90C220D2142
:105550005C48FBF7CFF90C220E215A48FBF7CAF939
:105560000C220F215748FBF7C5F90C2200215648A1
:10557000FBF7C0F90C2201215348FBF7BBF90C22C1
:1055800002215148FBF7B6F90C2203214E48FBF7E4
:10559000B1F90C2204214C48FBF7ACF90C2205218F
:1055A0004948FBF7A7F90C220B214748FBF7A2F962
:1055B0000C2211464448FBF79DF90C220D2142486C
:1055C000FBF798F90C220E213F48FBF793F90C22C8
:1055D0000F213D48FBF78EF90C2200213B48FBF7D9
:1055E00089F90C2201213948FBF784F90C220221A8
:1055F0003648FBF77FF90C2204213448FBF77AF98F
:105600000C2205213148FBF775F90C2208212F489F
:10561000FBF770F90C220F212C48FBF76BF944F0D3
:10562000010444F0080444F0100444F0400444F43D
:10563000C07400BF44F4006444F4805400BF2448A4
:10564000046045F0010545F0600545F4A06545F4AA
:10565000A04545F4803545F4801545F08075C005BA
:10566000C0F8485100231A4601211846FFF79EF959
:105670004FF4FA70FFF77EFC00231A460221184609
:10568000FFF794F90023082203211846FFF78EF94B
:1056900046F0030600BF46F0300600BF46F4007631
:1056A0003346002204211046FFF780F940F2B4503F
:1056B0000749143108607CBD3838024000080240B8
:1056C000000C02400010024000140240001802408A
:1056D000400100A070B505460C462046A84770BDA5
:1056E00010B51448006840F002001249086042F208
:1056F0002730114908606320091D086000200E4909
:10570000283908600C481C38006840F001000A493C
:105710001C39086002231D2203210120FEF7A0FF8F
:1057200005482838006840F001000349283908601E
:1057300010BD00004038024028040040F0B52DEDB7
:10574000028B83B005460E46384905FB01F000EE9A
:10575000100AF8EE400A300100EE100AB8EE400AD6
:1057600080EE801AB0EE418ABCEEC80A10EE100A34
:1057700084B200EE104AB8EE400A38EE400AF3EE6A
:10578000000A20EE200ABCEEC00A10EE107A4FF696
:10579000FF7000EA0414E01984B22548006840F064
:1057A00001002349086022481430006840F01000CE
:1057B0001F49143108600120022100230A46CDE967
:1057C00000104FF4C0611B48FBF7B4F80722092111
:1057D0001848FBF78FF807220A211648FBF78AF8CA
:1057E00015488460C06820F400401349C86008462A
:1057F000C06840F00800C8600846C06840F0040077
:10580000C8600846C06840F02000C8600223252216
:1058100003210846FEF724FF0748C06840F4005003
:105820000549C86003B0BDEC028BF0BD40420F00DB
:1058300030380240000002400010014030B595B001
:10584000054613AB12AA09A9284600F03FFA044600
:1058500014B1204615B030BD0020149026E0224936
:1058600009689DF8502001EBC20113AB11AA4868EA
:1058700001A900F02BFA04460CB12046EAE709A979
:1058800001A800F0DDFC60B99DF844009DF84810C7
:10589000884201DD0220DDE79DF85000124988753D
:1058A0000AE09DF85000401CC0B214900E48007DE4
:1058B0009DF850108842D2DC00BF0B48007D9DF857
:1058C0005010884201D10420C4E714A9284600F0F2
:1058D000DDFA04460CB12046BCE79DF850000249B1
:1058E00048750020B6E70000400100202DE9F04196
:1058F0009AB09C48847D007DA04202DC1AB0BDE8CD
:10590000F0819849096801EBC40106AB07AA486811
:1059100008A900F0DBF908A993A0FAF7F3FC002628
:1059200044E09048008B0121B1400840D8B12221C9
:105930008FA0FAF7E7FC304600F02EFB89492431AE
:10594000471839468BA0FAF7DDFC222188A0FAF728
:10595000D9FC304600F020FB82492431084410A9CC
:1059600041F8260018E0304600F016FB7D4924314E
:10597000085810A941F826007A48C07D30B910A80F
:1059800050F826107CA0FAF7BDFC05E010A850F8EE
:1059900026107AA0FAF7B6FC9DF81C00401EB04213
:1059A00002D078A0FAF7AEFC701CC6B29DF81C00BD
:1059B0008642B6DB74A0FAF7A5FC00F03DFB69480F
:1059C000407D0B280DD2DFE800F0060D151E2732B2
:1059D0003F4E5F7287006349096851F83400804781
:1059E000054690E05F4A126852F8341010988847D4
:1059F000054688E05B4B1B6853F83420DDE9100155
:105A0000904705467FE0574F3F6857F8343010A85D
:105A100007C89847054676E0DFF848C1DCF800C0C3
:105A20005CF8347010A80FC8B84705466BE01498AE
:105A3000DFF830C10090DCF800C05CF8347010A8CA
:105A40000FC8B84705465EE0DDE91401DFF814C170
:105A5000CDE90001DCF800C05CF8347010A80FC874
:105A6000B84705464FE0DDE914121698DFF8F4C098
:105A7000CDE900120290DCF800C05CF8347010A888
:105A80000FC8B84705463EE0DDE91423DDE91610EE
:105A9000DFF8D0C0CDE90023CDE90210DCF800C06A
:105AA0005CF8347010A80FC8B84705462BE0DDE954
:105AB0001523DDE91710CDE90123CDE90310149872
:105AC000DFF8A0C00090DCF800C05CF8347010A8CB
:105AD0000FC8B847054616E0DDE91623DDE91810C2
