:020000040800F2
:1000000068090020610200086F0200087102000800
:100010007302000875020008770200080000000063
:10002000000000000000000000000000790200084D
:100030007B020008000000007D0200087F0200082B
:100040008102000881020008810200088102000884
:100050008102000881020008810200088102000874
:100060008102000881020008810200088102000864
:100070008102000881020008810200088102000854
:100080008102000881020008810200088102000844
:100090008102000881020008810200088102000834
:1000A0008102000881020008810200088102000824
:1000B000810200083D090008810200088102000851
:1000C0008102000881020008810200088102000804
:1000D00081020008890A00088102000881020008E4
:1000E00081020008810200088102000881020008E4
:1000F00081020008810200088102000881020008D4
:100100008102000881020008A1090008810200089C
:1001100081020008810200088102000881020008B3
:1001200081020008810200088102000881020008A3
:100130008102000881020008810200088102000893
:100140008102000881020008810200088102000883
:100150008102000881020008810200088102000873
:100160008102000881020008810200088102000863
:1001700081020008810200088102000800000000DE
:100180008102000881020008810200088102000843
:100190008102000881020008810200088102000833
:1001A00081020008810200088102000800F002F8C4
:1001B00000F046F80AA090E8000C82448344AAF1BB
:1001C0000107DA4501D100F03BF8AFF2090EBAE8B9
:1001D0000F0013F0010F18BFFB1A43F0010318477B
:1001E0009C0E0000BC0E0000103A24BF78C878C1F5
:1001F000FAD8520724BF30C830C144BF04680C602D
:10020000704700000023002400250026103A28BF74
:1002100078C1FBD8520728BF30C148BF0B60704778
:1002200003681B0A28BF41F08001E42900F04880E0
:10023000002070471FB500F007FF1FBD10B510BDAF
:1002400000F0A8F91146FFF7F5FF00F0A1FD00F05E
:10025000C6F903B4FFF7F2FF03BC00F055FC000041
:100260000B48016841F4700101600A480047FEE74D
:10027000FEE7FEE7FEE7FEE7FEE7FEE7FEE7FEE756
:10028000FEE7000004480549034A054B704700009B
:1002900088ED00E0AD010008680100206809002039
:1002A00068010020704700000FB4044910B503AA8C
:1002B000029800F041F910BC5DF814FB0400002026
:1002C0002DE9F0418046D21D22F007020025D2E937
:1002D0000002F52915A614D0011E72F1000106DAFC
:1002E0000023D0EB030063EB020211A608E0D8F86C
:1002F00000108B0701D50FA602E0490701D50EA615
:1003000001251146002408F1240704E000F076F8E6
:1003100030323A55641C50EA0102F7D12B4632467E
:1003200021464046BDE8F04100F0ADB800000000B5
:100330002D0000002B000000200000002DE9F041FE
:100340000F460546002028622846E968884770B3B2
:10035000252805D0D5E901219047286A401CF2E7FD
:10036000E9682846002688476C2804460AD0682C8D
:1003700008D04C2C35D06A2C31D0742C31D07A2C4A
:100380002FD016E0E968064628468847B042044662
:1003900008D16C2E23D04FF480662846E968884740
:1003A000044606E06C2E03D04FF4807601E01EE098
:1003B0004026E4B1A4F14100192802D8203446F4C3
:1003C00000663A46214628462E60FFF729FF60B1B5
:1003D000012808D0FF1D27F007070837B4E780265B
:1003E000DBE70026D9E73F1DAEE72046B2E7286AE3
:1003F000BDE8F081704770477047704730B5B0F185
:100400000A024FEA900E71F100034EEA817EB0EBD2
:100410000E0061EB91014FEA101E4EEA017E10EBD7
:100420000E0041EB11114FEA102E4EEA016E10EB57
:100430000E0041EB11214FEA104E4EEA014E10EB37
:100440000E0041EB1141401841F100014FEAD0008C
:1004500040EA41704FEAD10110EB80054FEA810478
:1004600044EA907444EB01046D1944EB0404521BFC
:10047000A3414FF0000348BF0A3200D530BD401CF5
:1004800041F1000130BD2DE9F0470D4699469246F5
:10049000044600F124080168880604D5E06921F0CB
:1004A0001001216000E00120A84201DD471B00E0AF
:1004B0000027A1697A1902EB0900081AA0612078C7
:1004C000C00602D42046AFF30080002608E0D4E93D
:1004D00001211AF806009047206A401C761C206211
:1004E0004E45F4DB2078C0060AD52046AFF30080E5
:1004F00006E0D4E9012130209047206A401C2062A8
:10050000381EA7F10107F4DC07E0D4E9012118F84F
:1005100005009047206A401C2062281EA5F10105B5
:10052000F3DC2046AFF300802078000602D50220DD
:10053000BDE8F0870120FBE7074B70B50D467B4413
:1005400000F011F80446284600F020F810B14FF0F2
:10055000FF3070BD204670BDA707000001694A1C2E
:1005600002610878704700B58FB0CDE901310021F4
:10057000059105497944CDE9031011466846FFF716
:10058000DDFE0FB000BD0000E5FFFFFF007B00F0C7
:1005900080007047754600F02BF8AE4605006946AE
:1005A000534620F00700854618B020B5FFF76AFED5
:1005B000BDE820404FF000064FF000074FF0000864
:1005C0004FF0000B21F00701AC46ACE8C009ACE8E5
:1005D000C009ACE8C009ACE8C0098D46704710B549
:1005E0000446AFF300802046BDE81040FFF731BE5F
:1005F000004870470401002030B5CC1000F1200302
:1006000053F824304C07E50E0F24AC40A343CD1023
:1006100000F1200444F82530CC1000F1200353F8F9
:1006200024304C07E40E02FA04F42343CD1000F109
:10063000200444F8253030BD2DE9F0470C46DDE9B3
:100640000867002100258C4600BF60E04FF00108DC
:1006500008FA01F504EA050CAC4557D1D0F8008042
:100660004FEA410A4FF0030909FA0AF928EA090892
:10067000C0F80080D0F800804FEA410902FA09F979
:1006800048EA0908C0F80080012A01D0022A27D1CF
:10069000D0F808804FEA410A4FF0030909FA0AF935
:1006A00028EA0908C0F80880D0F808804FEA410914
:1006B00006FA09F948EA0908C0F80880D0F8049059
:1006C0004FF0010808FA01F829EA0809C0F8049077
:1006D000D0F8048003FA01F948EA0908C0F8048058
:1006E000D0F80C804FEA410A4FF0030909FA0AF9E1
:1006F00028EA0908C0F80C80D0F80C804FEA4109BC
:1007000007FA09F948EA0908C0F80C80491C1029C1
:100710009CD3BDE8F08700002DE9F04107468846EC
:1007200014461D46284600F033F8C5F1040007FAC8
:1007300000F60F20284100EA0800064306F00F06E5
:10074000E21704EBD2625211920002F1E022D2F8D9
:1007500000212146E31704EBD3635B11A4EB431C98
:10076000012303FA0CF31A432046E31704EBD36387
:100770005B119B0003F1E023C3F800210348005DF7
:1007800040EA061001490855BDE8F08100E400E0A8
:100790000146072323EA01021202054B18684FF6AF
:1007A000FF031840034B18431043014B1860704778
:1007B0000CED00E00000FA054A0A52020243014B28
:1007C0001A60704708ED00E0F0B504460D46164685
:1007D0001F461448006840F00100124908600020DC
:1007E0001049083108600F4800680F4908400D495A
:1007F00008600E48091D0860081F006820F480206A
:10080000091F0860002007490C3108603B4632464A
:100810002946204600F00CF800210846FFF7CCFFDF
:10082000F0BD000000380240FFFFF6FE103000244B
:10083000F0B504460D46002100203D4E366846F4D2
:1008400080363B4F3E6001E04E1CB1B2384E3668F8
:1008500006F400361EB941F6FF76B142F4DB41F6EC
:10086000FF76B14201D1012060E0314E403636685A
:1008700046F080562E4F40373E602E4E366846F486
:1008800040462C4F3E602A4E0836366846F41446E1
:10089000274F08373E60264E366826F08076244F74
:1008A0003E6045EA84160127C7EB520746EA074631
:1008B00046EA036646F480061D4F3F1D3E603E1F1C
:1008C000366846F080763F1F3E6000BF184E36689F
:1008D00006F00076002EF9D0174E366846F4807682
:1008E000154F3E603E46366846F400763E603E4612
:1008F000366846F480663E603E46366846F0050639
:100900003E600B4E0836366826F00306084F08375F
:100910003E603E46366846F002063E6000BF044E2A
:100920000836366806F00C06082EF8D1F0BD000037
:100930000038024000700040003C024070B5144C8A
:100940001448006800F0010000B31248006820F06D
:1009500001001049086010481049097850F82150EA
:1009600005E06068284008B12068804708342068A6
:100970000028F6D109480078401C0849087008464C
:1009800000780A2801DB0020087000BF70BD00005D
:100990001000002010040040541000080C0000203B
:1009A0003649096888B23649097801F08001002982
:1009B00060D100F00101D1B13149097801F0400165
:1009C000A9B12F49097801F03F013F290AD12C49EB
:1009D000097841F080012A4A11704FF0FF31294A0D
:1009E000116004E026490978491C254A117000F07D
:1009F0000201E9B32249097801F0400199B1204987
:100A0000097841F080011E4A11701C49243109689F
:100A10001C4A116019491031096821F00201174A76
:100A20001032116026E00021154A1170154A11603C
:100A30001349097841F04001114A11700F491039EA
:100A4000096821F001010D4A103A116000210B4A9A
:100A500014321160111F096841F00201121F116068
:100A600006491039096841F00101044A103A00E0D2
:100A700000E011600021014A11607047100C004035
:100A800036000020380000201C49096801F02001D0
:100A900009B31A494968C8B21949098801F40041E3
:100AA000C9B91749098801F4804161B10A2803D006
:100AB0000021134A118020E01149098841F40041C6
:100AC0000F4A118019E00D2806D10D49098841F41B
:100AD00080410B4A118010E009490988C1F30D01DA
:100AE000084A505406490988491C054A1180114694
:100AF0000988C72901DD00211180704700100140DD
:100B0000080000203C00002000BF70471CB52E48A4
:100B1000006840F001002C490860022003210023F6
:100B20000246CDE9001001212848FFF785FD022289
:100B300000212648FFF760FD23481030006840F090
:100B400008002149103108605920214908604FF000
:100B5000FF30091D08601E48283800681C492839E4
:100B600008601B48103800681949103908600846A9
:100B7000006840F001000860154808380068144912
:100B8000083908600846006840F001000860104815
:100B90002838006840F001000D49283908600C48E9
:100BA0001C38006840F0020009491C3908600846FA
:100BB000006840F00100086002233222002118463C
:100BC000FFF7AAFD1CBD00003038024000000240C3
:100BD000280C00402DE9F04100BF1248007800F0D9
:100BE0008000E8B10F48007800F03F00C5170446C8
:100BF0004FF0FF3300262146A1FB030705FB0372DC
:100C000004FB0625044608480068241845F1000541
:100C100022462B4605A0FFF747FB0020014908703C
:100C2000BDE8F081360000203800002048494748E0
:100C30003A256C6C642075730D0A00004FF0E021BA
:100C4000096921F004014FF0E0221161C21700EBA5
:100C50005272C2F3C702054B1A704FF47A714143C6
:100C6000C1F3CF01024A118070470000000000204C
:100C70000200002070B504464FF4077094FBF0F0BA
:100C8000C6B24FF4077094FBF0F100FB114085B23F
:100C900005E04FF4077000F009F8701EC6B2002E90
:100CA000F7D115B1284600F001F870BD01460D4A94
:100CB00012884A434FF0E0235A6100229A610122D0
:100CC0001A6100BF4FF0E022106900F001021AB172
:100CD00000F48032002AF5D000224FF0E0231A61A0
:100CE0009A6170470200002000BF054A126802F0B6
:100CF0004002002AF9D0C2B2014B5A60704700008E
:100D0000001001401CB50A48006840F00200084984
:100D100008600120032100230246CDE900100221D2
:100D20000448FFF789FC0120034908601CBD00004E
:100D3000303802400004024084824042114800786A
:100D400098B911480078012803D100200F490860A4
:100D500002E001200D4908600B480078012801D00D
:100D6000012000E000200849087006480078401C77
:100D700004490870084600780A2801DB0020087042
:100D8000704700000A0000200B00002084824042CF
:100D900000240823022219214FF4B470FFF714FD38
:100DA000B420FFF74BFF4FF4E1315A2000F0CCF8AC
:100DB000FFF7A8FF00F09AF800F00AF8FFF7A6FE88
:100DC00004E00620FFF756FF601CC4B2F9E70000FC
:100DD0001CB52E48006840F002002C490860012034
:100DE000032100230222CDE9001001462848FFF725
:100DF00023FC032200212648FFF7FEFB2348143082
:100E0000006840F0020021491431086042F22730A6
:100E1000204908606320091D08600A201D4910311F
:100E200008601C481038006840F4C0401949103967
:100E300008600846006840F40060086015480838FB
:100E4000006840F04000134908390860084600680F
:100E500040F0200008600846006840F0100008607C
:100E60000C481C30006840F400400A491C310860FE
:100E700008482838006840F0800006492839086092
:100E80000846006840F0010008601CBD3038024090
:100E900000040240280401401148007868B9114854
:100EA0000078632805DA0F480078401C0D49087067
:100EB00010E001200A4908700CE00A480078002878
:100EC00005DD08480078401E0649087002E0002051
:100ED0000349087003480078034908607047000020
:100EE00031000020300000203804014010B51448C3
:100EF000006840F002001249086042F227301149B0
:100F000008606320091D086000200E492839086028
:100F10000C481C38006840F001000A491C39086080
:100F200002231D2203210120FFF7F6FB0548283884
:100F3000006840F0010003492839086010BD000036
:100F40004038024028040040F0B52DED028B83B0FC
:100F500005460E46384905FB01F000EE100AF8EE92
:100F6000400A300100EE100AB8EE400A80EE801A06
:100F7000B0EE418ABCEEC80A10EE100A84B200EE50
:100F8000104AB8EE400A38EE400AF3EE000A20EEAE
:100F9000200ABCEEC00A10EE107A4FF6FF7000EA8D
:100FA0000414E01984B22548006840F00100234988
:100FB000086022481430006840F010001F491431C6
:100FC00008600120022100230A46CDE900104FF4F9
:100FD000C0611B48FFF730FB072209211848FFF7C3
:100FE0000BFB07220A211648FFF706FB1548846011
:100FF000C06820F400401349C8600846C06840F04B
:101000000800C8600846C06840F00400C860084690
:10101000C06840F02000C860022325220321084652
:10102000FFF77AFB0748C06840F400500549C860E4
:1010300003B0BDEC028BF0BD40420F0030380240DF
:1010400000000240001001404FF04070E1EE100A35
:10105000704700001B0000000500000003000000B6
:1010600005000000030000000D0000000300000068
:101070000500000003000000050000009C100008AF
:10108000000000203C000000E8010008D810000823
:101090003C0000202C0900000402000800000000B1
:1010A0000000000000000001000000003D0D0008ED
:1010B00010000000990E000804000000D50B000885
:1010C0000100000000000000FFFF00000000000021
:0810D000000000000000000018
:04000005080001AD41
:00000001FF
