:020000040800F2
:10000000A8090020650200087302000875020008B4
:1000100077020008790200087B0200080000000057
:100020000000000000000000000000007D02000849
:100030007F0200080000000081020008830200081F
:100040008502000885020008850200088502000874
:100050008502000885020008850200088502000864
:100060008502000885020008850200088502000854
:100070008502000885020008850200088502000844
:100080008502000885020008850200088502000834
:100090008502000885020008850200088502000824
:1000A0008502000885020008850200088502000814
:1000B00085020008754100088502000885020008D5
:1000C00085020008850200088502000885020008F4
:1000D00085020008C1420008850200088502000868
:1000E00085020008850200088502000885020008D4
:1000F00085020008850200088502000885020008C4
:100100008502000885020008D94100088502000820
:1001100085020008850200088502000885020008A3
:100120008502000885020008850200088502000893
:100130008502000885020008850200088502000883
:100140008502000885020008850200088502000873
:100150008502000885020008850200088502000863
:100160008502000885020008850200088502000853
:1001700085020008850200088502000800000000D2
:100180008502000885020008850200088502000833
:100190008502000885020008850200088502000823
:1001A00085020008850200088502000800F002F8B8
:1001B00000F049F80AA090E8000C82448344AAF1B8
:1001C0000107DA4501D100F03EF8AFF2090EBAE8B6
:1001D0000F0013F0010F18BFFB1A43F0010318477B
:1001E000E893000008940000103A24BF78C878C152
:1001F000FAD8520724BF30C830C144BF04680C602D
:10020000704700000023002400250026103A28BF74
:1002100078C1FBD8520728BF30C148BF0B60704778
:1002200003681B0A28BF41F08001782900F088800C
:10023000E42900F04780002070471FB504F0F6FD68
:100240001FBD10B510BD00F0D3F91146FFF7F5FF43
:1002500004F0D8F900F0F1F903B4FFF7F2FF03BCA2
:1002600004F06EF80B48016841F4700101600A481F
:100270000047FEE7FEE7FEE7FEE7FEE7FEE7FEE7F4
:10028000FEE7FEE7FEE7000004480549034A054B88
:100290007047000088ED00E0AD010008A8010020D3
:1002A000A8090020A8010020704700000FB40449ED
:1002B00010B503AA029800F06DF910BC5DF814FBAC
:1002C000040000202DE9F0418046D21D22F00702F3
:1002D0000025D2E90002F52915A614D0011E72F1FD
:1002E000000106DA0023D0EB030063EB020211A643
:1002F00008E0D8F800108B0701D50FA602E04907E7
:1003000001D50EA601251146002408F1240704E0BA
:1003100000F0A2F830323A55641C50EA0102F7D1DD
:100320002B46324621464046BDE8F04100F0D9B8A0
:10033000000000002D0000002B0000002000000045
:1003400070B504460D4621461068AFF30080218841
:10035000090502D50F4A7A4402E00E4A7A440E3269
:10036000002104F1240305E000F00F060009965D6A
:100370005E54491C0028F7D120780023000704D5DB
:10038000702D02D009B1022311322046BDE8704021
:1003900000F0A7B8469200002DE9F0410F4605464F
:1003A000002028622846E968884770B3252805D0D0
:1003B000D5E901219047286A401CF2E7E968284600
:1003C000002688476C2804460AD0682C08D04C2C9C
:1003D00035D06A2C31D0742C31D07A2C2FD016E045
:1003E000E968064628468847B042044608D16C2E84
:1003F00023D04FF480662846E9688847044606E023
:100400006C2E03D04FF4807601E01EE04026E4B16C
:10041000A4F14100192802D8203446F400663A4677
:10042000214628462E60FFF7FBFE60B1012808D068
:10043000FF1D27F007070837B4E78026DBE7002613
:10044000D9E73F1DAEE72046B2E7286ABDE8F08154
:10045000704770477047704730B5B0F10A024FEAF5
:10046000900E71F100034EEA817EB0EB0E0061EB5D
:1004700091014FEA101E4EEA017E10EB0E0041EB97
:1004800011114FEA102E4EEA016E10EB0E0041EBF7
:1004900011214FEA104E4EEA014E10EB0E0041EBD7
:1004A0001141401841F100014FEAD00040EA41708B
:1004B0004FEAD10110EB80054FEA810444EA9074C1
:1004C00044EB01046D1944EB0404521BA3414FF0AB
:1004D000000348BF0A3200D530BD401C41F1000185
:1004E00030BD2DE9F0470D4699469246044600F18D
:1004F00024080168880604D5E06921F01001216014
:1005000000E00120A84201DD471B00E00027A169AF
:100510007A1902EB0900081AA0612078C00602D4FB
:100520002046AFF30080002608E0D4E901211AF844
:1005300006009047206A401C761C20624E45F4DB82
:100540002078C0060AD52046AFF3008006E0D4E943
:10055000012130209047206A401C2062381EA7F1FC
:100560000107F4DC07E0D4E9012118F80500904701
:10057000206A401C2062281EA5F10105F3DC2046FC
:10058000AFF300802078000602D50220BDE8F08796
:100590000120FBE7074B70B50D467B4400F011F8D6
:1005A0000446284600F020F810B14FF0FF3070BD2F
:1005B000204670BDBF3F000001694A1C02610878F7
:1005C000704700B58FB0CDE9013100210591054993
:1005D0007944CDE9031011466846FFF7DDFE0FB000
:1005E00000BD0000E5FFFFFF007B00F080007047CA
:1005F000754600F02BF8AE4605006946534620F0DC
:100600000700854618B020B5FFF73EFEBDE8204044
:100610004FF000064FF000074FF000084FF0000BBE
:1006200021F00701AC46ACE8C009ACE8C009ACE871
:10063000C009ACE8C0098D46704710B50446AFF359
:1006400000802046BDE81040FFF706BE0048704716
:100650004401002030B5CC1000F1200353F82430C1
:100660004C07E50E0F24AC40A343CD1000F120044D
:1006700044F82530CC1000F1200353F824304C0707
:10068000E40E02FA04F42343CD1000F1200444F8F0
:10069000253030BD2DE9F0470C46DDE90867002123
:1006A00000258C4600BF60E04FF0010808FA01F514
:1006B00004EA050CAC4557D1D0F800804FEA410A56
:1006C0004FF0030909FA0AF928EA0908C0F800807E
:1006D000D0F800804FEA410902FA09F948EA09080E
:1006E000C0F80080012A01D0022A27D1D0F8088062
:1006F0004FEA410A4FF0030909FA0AF928EA090802
:10070000C0F80880D0F808804FEA410906FA09F9D4
:1007100048EA0908C0F80880D0F804904FF00108B2
:1007200008FA01F829EA0809C0F80490D0F8048012
:1007300003FA01F948EA0908C0F80480D0F80C80EF
:100740004FEA410A4FF0030909FA0AF928EA0908B1
:10075000C0F80C80D0F80C804FEA410907FA09F97B
:1007600048EA0908C0F80C80491C10299CD3BDE850
:10077000F087000070B5044600260D4805880D4836
:10078000006818B1204602F03FFF0FE0084840889B
:1007900045430021084602F09FFD02F023FF00269A
:1007A00002E005490C80761CAE42FAD370BD000011
:1007B00014010020240100200000086010B5044648
:1007C0005C4884715C48006850B1204602F07AFFB2
:1007D0005948C08A574908805748008B488010BD47
:1007E000002C51D1F020534908804FF4A07048806C
:1007F0000846808849F24131884205D04D488088BA
:1008000045F21031884214D12C204A4908812A200F
:1008100048812B2088810846808845F21031884223
:1008200006D14FF4A070434908804FF4F07048801F
:100830007BE04048808845F21051884210D14FF447
:1008400030503C4908814FF4285048814FF42C50D7
:1008500088814FF4F07008804FF44870488064E05D
:100860003448808841F6631188425ED12C2031499A
:1008700008812B2048812A2088814FF4F07008805D
:100880004FF44870488050E04FF4A0702949088028
:10089000F02048800846808849F24131884205D0DE
:1008A0002448808845F21031884207D12C20214904
:1008B00008812A2048812B20888129E01D488088D2
:1008C00045F21051884210D14FF430501949088137
:1008D0004FF4285048814FF42C5088814FF44870D1
:1008E00008804FF4F070488012E01248808841F68A
:1008F000631188420CD12C200E4908812A2048819E
:100900002B2088814FF4487008804FF4F0704880A5
:100910000848808845F21031884206D14FF4F070C3
:10092000044908804FF4A0704880002002F09AFB30
:1009300000BF54E7140100202401002070B50446D4
:100940000D4616464348006828B1324629462046DF
:1009500002F0CEFE70BD4048808849F241318842A5
:1009600005D03D48808845F21031884214D13A497B
:10097000488902F02BFE201202F01CFEE0B202F0C9
:1009800019FE3549888902F021FE281202F012FE74
:10099000E8B202F00FFE54E02F48808845F2105173
:1009A000884220D12C49488902F010FE201202F022
:1009B00001FE29494989491C88B202F007FEE0B2CC
:1009C00002F0F8FD2449888902F000FE281202F0A6
:1009D000F1FD21498989491C88B202F0F7FDE8B28E
:1009E00002F0E8FD2DE01C48808841F66311884242
:1009F00027D11948807920B917480088401E001B6C
:100A000084B21549488902F0E1FD201202F0D2FDBE
:100A1000E0B202F0CFFD201202F0CCFDE0B202F015
:100A2000C9FD0D49888902F0D1FD281202F0C2FDEE
:100A3000E8B202F0BFFD281202F0BCFDE8B202F0FD
:100A4000B9FD0548008905490880891C0E8000BF52
:100A500080E700002401002014010020FEFF076051
:100A60001CB503F0E7F9FE4988800846808818B174
:100A700002F00AFF02F076BAFA48006840F002007D
:100A8000F84908600846006840F018000860F5481A
:100A90000830006840F00100F24908310860012088
:100AA000022100230246CDE900102021EE48FFF785
:100AB000F1FD0120032100230222CDE900104EF2B6
:100AC000B371EA48FFF7E6FD01200321002302226B
:100AD000CDE900104FF68071E548FFF7DBFD0C22F1
:100AE0000021E248FFF7B6FD0C220121DF48FFF7A5
:100AF000B1FD0C220421DD48FFF7ACFD0C220521DD
:100B0000DA48FFF7A7FD0C220721D848FFF7A2FD1E
:100B10000C220821D548FFF79DFD0C220921D3485E
:100B2000FFF798FD0C220A21D048FFF793FD0C2215
:100B30000D21CE48FFF78EFD0C220E21CB48FFF78A
:100B400089FD0C220F21C948FFF784FD0C220721E3
:100B5000C748FFF77FFD0C220821C548FFF77AFD43
:100B60000C220921C248FFF775FD0C220A21C0485A
:100B7000FFF770FD0C220B21BD48FFF76BFD0C2227
:100B80001146BB48FFF766FD0C220D21B848FFF760
:100B900061FD0C220E21B648FFF75CFD0C220F21EF
:100BA000B348FFF757FD00204FF020410860486030
:100BB000B04908604FF02040006840F480504FF08A
:100BC000204108600846006840F4804008600846FC
:100BD000006840F010000860084640684860084619
:100BE000406840F00F0048600846406840F48C4080
:100BF0004860A0480068C1F804010846D0F8040124
:100C000040F00F00C1F804010846D0F8040140F498
:100C10007060C1F804010846006840F001000860F7
:100C2000322003F043FCD32002F0D0FC02F0E0F9C4
:100C30008B49888002F0DCF98949888002F0D8F974
:100C400087498880084680884FF6FF7101EA0020B6
:100C50008349888002F0CCF981498988084380491A
:100C600088800846808849F24131884278D0D42073
:100C700002F0ACFC02F0BCF97949888002F0B8F9C6
:100C80007749888002F0B4F97549888008468088E1
:100C90004FF6FF7101EA00207149888002F0A8F93F
:100CA0006F49898808436E4988800846808845F2E4
:100CB0001031884254D04FF45A4002F087FC02F0C1
:100CC00097F9674988804FF45B4002F07FFC02F09F
:100CD0008FF963498880084680884FF6FF7101EAE2
:100CE00000205F4988804FF45C4002F06FFC02F006
:100CF0007FF95B498988084359498880084680887C
:100D0000B0F5004F02D145F21050888054488088D9
:100D100045F21051884223D0A12002F057FC02F086
:100D200067F94F49888002F063F94D498880084689
:100D300080884FF6FF7101EA00204949888002F05F
:100D400057F947498988084345498880084680887B
:100D500045F26171884203D141F6631040498880B1
:100D60003F48818844A0FFF7A1FA3D48808849F2B6
:100D70004131884272D1CF2002F028FC002002F0DD
:100D800019FCC12002F016FC302002F013FCED200B
:100D900002F01CFC642002F00DFC032002F00AFCAF
:100DA000122002F007FC812002F004FCE82002F08F
:100DB0000DFC852002F0FEFB102002F0FBFB7A20E8
:100DC00002F0F8FBCB2002F001FC392002F0F2FB2C
:100DD0002C2002F0EFFB002002F0ECFB342002F0AC
:100DE000E9FB022002F0E6FBF72002F0EFFB2020F7
:100DF00002F0E0FBEA2002F0E9FB002002F0DAFB5F
:100E0000002002F0D7FBC02002F0E0FB1B2002F024
:100E1000D1FBC12002F0DAFB012002F0CBFBC520A0
:100E200002F0D4FB302002F0C5FB302002F0C2FB00
:100E3000C72002F0CBFBB72002F0BCFB362002F04B
:100E4000C5FB482002F0B6FB3A2002F0BFFB55205C
:100E500002F0B0FBB12002F0B9FB15E0B7E00000F2
:100E6000140100203038024000040240000C02400F
:100E700000100240040100A0204C43442049443AA1
:100E800025780D0A00000000002002F093FB1A20D4
:100E900002F090FBB62002F099FB0A2002F08AFBD8
:100EA000A22002F087FBF22002F090FB002002F06B
:100EB00081FB262002F08AFB012002F07BFBE02070
:100EC00002F084FB0F2002F075FB2A2002F072FB77
:100ED000282002F06FFB082002F06CFB0E2002F0CD
:100EE00069FB082002F066FB542002F063FBA92096
:100EF00002F060FB432002F05DFB0A2002F05AFB87
:100F00000F2002F057FB002002F054FB002002F0FB
:100F100051FB002002F04EFB002002F04BFBE120D1
:100F200002F054FB002002F045FB152002F042FBCA
:100F3000172002F03FFB072002F03CFB112002F0DB
:100F400039FB062002F036FB2B2002F033FB562043
:100F500002F030FB3C2002F02DFB052002F02AFBC2
:100F6000102002F027FB0F2002F024FB3F2002F0AC
:100F700021FB3F2002F01EFB0F2002F01BFB2B2069
:100F800002F024FB002002F015FB002002F012FB0F
:100F9000012002F00FFB3F2002F00CFB2A2002F0A0
:100FA00015FB002002F006FB002002F003FB0020EE
:100FB00002F000FBEF2002F0FDFA112002F006FB28
:100FC000782003F073FA292002F000FB52E5FE4876
:100FD000808845F21031884240F07C87ED2002F095
:100FE000F5FA012002F0E6FAFE2002F0E3FAEE2024
:100FF00002F0ECFADE2002F0DDFA212002F0DAFA4B
:10100000F12002F0E3FA012002F0D4FADF2002F02E
:10101000DDFA102002F0CEFAC42002F0D7FA8F20B9
:1010200002F0C8FAC62002F0D1FA002002F0C2FA9B
:10103000E22002F0BFFAE22002F0BCFAE22002F065
:10104000B9FABF2002F0C2FAAA2002F0B3FAB02027
:1010500002F0BCFA0D2002F0ADFA002002F0AAFA6C
:101060000D2002F0A7FA002002F0A4FA112002F0ED
:10107000A1FA002002F09EFA192002F09BFA00204B
:1010800002F098FA212002F095FA002002F092FA7C
:101090002D2002F08FFA002002F08CFA3D2002F0A1
:1010A00089FA002002F086FA5D2002F083FA00201F
:1010B00002F080FA5D2002F07DFA002002F07AFA58
:1010C000B12002F083FA802002F074FA002002F0CE
:1010D00071FA8B2002F06EFA002002F06BFA962073
:1010E00002F068FA002002F065FAB22002F06EFA0F
:1010F000002002F05FFA002002F05CFA022002F009
:1011000059FA002002F056FA032002F053FA0020A8
:1011100002F050FAB32002F059FA002002F04AFA25
:10112000002002F047FA002002F044FA002002F00A
:1011300041FA002002F03EFA002002F03BFA0020C3
:1011400002F038FA002002F035FA002002F032FAFC
:10115000002002F02FFA002002F02CFA002002F00A
:1011600029FA002002F026FA002002F023FA0020DB
:1011700002F020FA002002F01DFA002002F01AFA14
:10118000002002F017FA002002F014FA002002F00A
:1011900011FA002002F00EFA002002F00BFA0020F3
:1011A00002F008FA002002F005FAB42002F00EFA6C
:1011B0008B2002F0FFF9002002F0FCF9962002F0EB
:1011C000F9F9002002F0F6F9A12002F0F3F900206D
:1011D00002F0F0F9B52002F0F9F9022002F0EAF984
:1011E000002002F0E7F9032002F0E4F9002002F009
:1011F000E1F9042002F0DEF9002002F0DBF9B6206C
:1012000002F0E4F9002002F0D5F9002002F0D2F952
:10121000B72002F0DBF9002002F0CCF9002002F048
:10122000C9F93F2002F0C6F9002002F0C3F95E20A0
:1012300002F0C0F9002002F0BDF9642002F0BAF912
:10124000002002F0B7F98C2002F0B4F9002002F07F
:10125000B1F9AC2002F0AEF9002002F0ABF9DC20CD
:1012600002F0A8F9002002F0A5F9702002F0A2F91E
:10127000002002F09FF9902002F09CF9002002F07B
:1012800099F9EB2002F096F9002002F093F9DC20A6
:1012900002F090F9002002F08DF9B82002F096F9E2
:1012A000002002F087F9002002F084F9002002F00B
:1012B00081F9002002F07EF9002002F07BF9002085
:1012C00002F078F9002002F075F9002002F072F9BE
:1012D000BA2002F07BF9242002F06CF9002002F021
:1012E00069F9002002F066F9002002F063F9C120DC
:1012F00002F06CF9202002F05DF9002002F05AF9AA
:10130000542002F057F9002002F054F9FF2002F0B7
:1013100051F9002002F04EF9C22002F057F90A20DC
:1013200002F048F9002002F045F9042002F042F9E9
:10133000002002F03FF9C32002F048F93C2002F0FF
:1013400039F9002002F036F93A2002F033F9002092
:1013500002F030F9392002F02DF9002002F02AF9CC
:10136000372002F027F9002002F024F93C2002F097
:1013700021F9002002F01EF9362002F01BF90020AE
:1013800002F018F9322002F015F9002002F012F9EB
:101390002F2002F00FF9002002F00CF92C2002F0AF
:1013A00009F9002002F006F9292002F003F90020D3
:1013B00002F000F9262002F0FDF8002002F0FAF811
:1013C000242002F0F7F801E014010020002002F0D0
:1013D000F1F8242002F0EEF8002002F0EBF82320D0
:1013E00002F0E8F8002002F0E5F83C2002F0E2F814
:1013F000002002F0DFF8362002F0DCF8002002F0D6
:10140000D9F8322002F0D6F8002002F0D3F82F20CD
:1014100002F0D0F8002002F0CDF82C2002F0CAF83B
:10142000002002F0C7F8292002F0C4F8002002F0E2
:10143000C1F8262002F0BEF8002002F0BBF82420FC
:1014400002F0B8F8002002F0B5F8242002F0B2F85B
:10145000002002F0AFF8232002F0ACF8002002F0E8
:10146000A9F8C42002F0B2F8622002F0A3F800202C
:1014700002F0A0F8052002F09DF8002002F09AF892
:10148000842002F097F8002002F094F8F02002F097
:1014900091F8002002F08EF8182002F08BF800205E
:1014A00002F088F8A42002F085F8002002F082F80B
:1014B000182002F07FF8002002F07CF8502002F0A3
:1014C00079F8002002F076F80C2002F073F8002082
:1014D00002F070F8172002F06DF8002002F06AF8B0
:1014E000952002F067F8002002F064F8F32002F083
:1014F00061F8002002F05EF8E62002F05BF80020C0
:1015000002F058F8C52002F061F8322002F052F8DB
:10151000002002F04FF8442002F04CF8002002F0C6
:1015200049F8652002F046F8002002F043F87620E2
:1015300002F040F8002002F03DF8882002F03AF86E
:10154000002002F037F8C62002F040F8202002F018
:1015500031F8002002F02EF8172002F02BF80020BE
:1015600002F028F8012002F025F8002002F022F80D
:10157000C72002F02BF8002002F01CF8002002F037
:1015800019F8002002F016F8002002F013F8C82025
:1015900002F01CF8002002F00DF8002002F00AF81A
:1015A000002002F007F8002002F004F8C92002F041
:1015B0000DF8002001F0FEFF002001F0FBFF0020ED
:1015C00001F0F8FF002001F0F5FF002001F0F2FF2C
:1015D000002001F0EFFF002001F0ECFF002001F0FF
:1015E000E9FF002001F0E6FF002001F0E3FF00200A
:1015F00001F0E0FF002001F0DDFF002001F0DAFF44
:10160000002001F0D7FF002001F0D4FF002001F0FE
:10161000D1FFE02001F0DAFF162001F0CBFF00201F
:1016200001F0C8FF1C2001F0C5FF002001F0C2FF3F
:10163000212001F0BFFF002001F0BCFF362001F0A7
:10164000B9FF002001F0B6FF462001F0B3FF0020F3
:1016500001F0B0FF522001F0ADFF002001F0AAFF21
:10166000642001F0A7FF002001F0A4FF7A2001F020
:10167000A1FF002001F09EFF8B2001F09BFF0020C6
:1016800001F098FF992001F095FF002001F092FFF2
:10169000A82001F08FFF002001F08CFFB92001F09D
:1016A00089FF002001F086FFC42001F083FF0020A5
:1016B00001F080FFCA2001F07DFF002001F07AFFD9
:1016C000D22001F077FF002001F074FFD92001F053
:1016D00071FF002001F06EFFE02001F06BFF0020A1
:1016E00001F068FFF32001F065FF002001F062FFC8
:1016F000E12001F06BFF162001F05CFF002001F0FB
:1017000059FF1C2001F056FF002001F053FF22205A
:1017100001F050FF002001F04DFF362001F04AFF9C
:10172000002001F047FF452001F044FF002001F0B8
:1017300041FF522001F03EFF002001F03BFF6420FA
:1017400001F038FF002001F035FF7A2001F032FF70
:10175000002001F02FFF8B2001F02CFF002001F072
:1017600029FF992001F026FF002001F023FFA82087
:1017700001F020FF002001F01DFFB92001F01AFF49
:10178000002001F017FFC42001F014FF002001F039
:1017900011FFCA2001F00EFF002001F00BFFD22044
:1017A00001F008FF002001F005FFD82001F002FF42
:1017B000002001F0FFFEE02001F0FCFE002001F01F
:1017C000F9FEF32001F0F6FE002001F0F3FEE22026
:1017D00001F0FCFE052001F0EDFE002001F0EAFE24
:1017E0000B2001F0E7FE002001F0E4FE1B2001F0D9
:1017F000E1FE002001F0DEFE342001F0DBFE0020DF
:1018000001F0D8FE442001F0D5FE002001F0D2FE08
:101810004F2001F0CFFE002001F0CCFE612001F04E
:10182000C9FE002001F0C6FE792001F0C3FE0020B1
:1018300001F0C0FE882001F0BDFE002001F0BAFEDC
:10184000972001F0B7FE002001F0B4FEA62001F0C1
:10185000B1FE002001F0AEFEB72001F0ABFE00208B
:1018600001F0A8FEC22001F0A5FE002001F0A2FEBA
:10187000C72001F09FFE002001F09CFED12001F066
:1018800099FE002001F096FED62001F093FE002084
:1018900001F090FEDD2001F08DFE002001F08AFEB7
:1018A000F32001F087FE002001F084FEE32001F028
:1018B0008DFE052001F07EFE002001F07BFE0A2057
:1018C00001F078FE002001F075FE1C2001F072FE90
:1018D000002001F06FFE332001F06CFE002001F0CB
:1018E00069FE442001F066FE002001F063FE5020F6
:1018F00001F060FE002001F05DFE622001F05AFE62
:10190000002001F057FE782001F054FE002001F085
:1019100051FE882001F04EFE002001F04BFE972082
:1019200001F048FE002001F045FEA62001F042FE35
:10193000002001F03FFEB72001F03CFE002001F046
:1019400039FEC22001F036FE002001F033FEC72030
:1019500001F030FE002001F02DFED12001F02AFE22
:10196000002001F027FED52001F024FE002001F028
:1019700021FEDD2001F01EFE002001F01BFEF32001
:1019800001F018FE002001F015FEE42001F01EFE1B
:10199000012001F00FFE002001F00CFE012001F0FB
:1019A00009FE002001F006FE022001F003FE0020E7
:1019B00001F000FE2A2001F0FDFD002001F0FAFDFB
:1019C0003C2001F0F7FD002001F0F4FD4B2001F078
:1019D000F1FD002001F0EEFD5D2001F0EBFD0020A7
:1019E00001F0E8FD742001F0E5FD002001F0E2FDCA
:1019F000842001F0DFFD002001F0DCFD932001F0E8
:101A0000D9FD002001F0D6FDA22001F0D3FD002079
:101A100001F0D0FDB32001F0CDFD002001F0CAFDA2
:101A2000BE2001F0C7FD002001F0C4FDC42001F07C
:101A3000C1FD002001F0BEFDCD2001F0BBFD002066
:101A400001F0B8FDD32001F0B5FD002001F0B2FD9A
:101A5000DD2001F0AFFD002001F0ACFDF32001F02E
:101A6000A9FD002001F0A6FDE52001F0AFFD00205A
:101A700001F0A0FD002001F09DFD002001F09AFD85
:101A8000002001F097FD022001F094FD002001F0FC
:101A900091FD292001F08EFD002001F08BFD3C20FE
:101AA00001F088FD002001F085FD4B2001F082FD52
:101AB000002001F07FFD5D2001F07CFD002001F0A1
:101AC00079FD742001F076FD002001F073FD842083
:101AD00001F070FD002001F06DFD932001F06AFD22
:101AE000002001F067FDA22001F064FD002001F05C
:101AF00061FDB32001F05EFD002001F05BFDBE2022
:101B000001F058FD002001F055FDC42001F052FD08
:101B1000002001F04FFDCD2001F04CFD002001F030
:101B200049FDD32001F046FD002001F043FDDC20FB
:101B300001F040FD002001F03DFDF32001F03AFDF1
:101B4000002001F037FDE62001F040FD112001F0FA
:101B500031FD002001F02EFD342001F02BFD00208E
:101B600001F028FD562001F025FD002001F022FDA6
:101B7000762001F01FFD002001F01CFD772001F010
:101B800019FD002001F016FD662001F013FD002074
:101B900001F010FD882001F00DFD002001F00AFD8C
:101BA000992001F007FD002001F004FDBB2001F0A9
:101BB00001FD002001F0FEFC992001F0FBFC00205B
:101BC00001F0F8FC662001F0F5FC002001F0F2FCC9
:101BD000552001F0EFFC002001F0ECFC552001F055
:101BE000E9FC002001F0E6FC452001F0E3FC0020C8
:101BF00001F0E0FC432001F0DDFC002001F0DAFC04
:101C0000442001F0D7FC002001F0D4FCE72001F0D3
:101C1000DDFC322001F0CEFC002001F0CBFC552091
:101C200001F0C8FC002001F0C5FC762001F0C2FCE8
:101C3000002001F0BFFC662001F0BCFC002001F098
:101C4000B9FC672001F0B6FC002001F0B3FC67206E
:101C500001F0B0FC002001F0ADFC872001F0AAFCEF
:101C6000002001F0A7FC992001F0A4FC002001F065
:101C7000A1FCBB2001F09EFC002001F09BFC992000
:101C800001F098FC002001F095FC772001F092FC17
:101C9000002001F08FFC442001F08CFC002001F0BA
:101CA00089FC562001F086FC002001F083FC2320F3
:101CB00001F080FC002001F07DFC332001F07AFC73
:101CC000002001F077FC452001F074FC002001F0B9
:101CD00071FCE82001F07AFC002001F06BFC002090
:101CE00001F068FC992001F065FC002001F062FC25
:101CF000872001F05FFC002001F05CFC882001F0EF
:101D000059FC002001F056FC772001F053FC002024
:101D100001F050FC662001F04DFC002001F04AFC6F
:101D2000882001F047FC002001F044FCAA2001F0CB
:101D300041FC002001F03EFCBB2001F03BFC0020F8
:101D400001F038FC992001F035FC002001F032FC54
:101D5000662001F02FFC002001F02CFC552001F042
:101D600029FC002001F026FC552001F023FC002076
:101D700001F020FC442001F01DFC002001F01AFCC1
:101D8000442001F017FC002001F014FC552001F064
:101D900011FC002001F00EFCE92001F017FCAA2044
:101DA00001F008FC002001F005FC002001F002FC1D
:101DB000002001F0FFFB002001F008FCAA2001F048
:101DC000F9FBCF2001F002FC002001F0F3FB002022
:101DD00001F0F0FB002001F0EDFB002001F0EAFB38
:101DE000002001F0E7FB002001F0E4FB002001F0FF
:101DF000E1FB002001F0DEFB002001F0DBFB002016
:101E000001F0D8FB002001F0D5FB002001F0D2FB4F
:101E1000002001F0CFFB002001F0CCFB002001F0FE
:101E2000C9FB002001F0C6FB002001F0C3FBF0203D
:101E300001F0CCFB002001F0BDFB502001F0BAFB0B
:101E4000002001F0B7FB002001F0B4FB002001F0FE
:101E5000B1FBF32001F0BAFB002001F0ABFBF9204D
:101E600001F0B4FB062001F0A5FB102001F0A2FB5D
:101E7000292001F09FFB002001F09CFB3A2001F09B
:101E8000A5FB552001F096FB112001F09FFB64207B
:101E900002F00CFB292001F099FB352001F096FBA4
:101EA000002001F087FB512001F090FBFF2001F0A2
:101EB00081FB532001F08AFB2C2001F07BFB552095
:101EC00001F084FB822001F075FB2C2001F07EFBE9
:101ED00001F048B8FE48808845F2105188427DD113
:101EE00055214FF4704001F087FBAA214FF2010009
:101EF00001F082FB52214FF2020001F07DFB08212C
:101F00004FF2030001F078FB01214FF2040001F0D1
:101F100073FB0D214FF4304001F06EFB0D214BF2AD
:101F2000010001F069FB0D214BF2020001F064FB9E
:101F300034214FF4364001F05FFB34214BF2016055
:101F400001F05AFB34214BF2026001F055FB0D21E8
:101F50004FF4314001F050FB0D214BF2011001F024
:101F60004BFB0D214BF2021001F046FB34214FF4E4
:101F7000374001F041FB34214BF2017001F03CFB92
:101F800034214BF2027001F037FB00214FF4324054
:101F900001F032FB00214BF2012001F02DFB00216A
:101FA0004BF2022001F028FB24214FF4384001F0CD
:101FB00023FB24214BF6010001F01EFB24214BF6EC
:101FC000020001F019FB01214FF43F4001F014FB26
:101FD0000F214FF4334001F00FFB00E0FDE30F2130
:101FE0004BF2013001F008FB0F214BF2023001F0FF
:101FF00003FB34214FF4394001F0FEFA34214BF653
:10200000011001F0F9FA34214BF6021001F0F4FA54
:1020100008214FF4354001F0EFFA08214BF201504E
:1020200001F0EAFA08214BF2025001F0E5FA03212F
:102030004FF4424001F0E0FA24214FF43A4001F01D
:10204000DBFA24214BF6012001F0D6FA24214BF6CD
:10205000022001F0D1FA00214FF43C4001F0CCFA0B
:1020600078214BF6014001F0C7FA00214BF60240FF
:1020700001F0C2FA00214FF43D4001F0BDFA782191
:102080004BF6015001F0B8FA00214BF6025001F076
:10209000B3FA00214FF43E4001F0AEFA64214BF652
:1020A000016001F0A9FA00214FF4514001F0A4FAB7
:1020B00033214DF2011001F09FFA00214DF2021080
:1020C00001F09AFA34214DF2031001F095FA002143
:1020D0004DF2041001F090FA3A214DF2051001F092
:1020E0008BFA00214DF2061001F086FA4A214DF2DA
:1020F000071001F081FA00214DF2081001F07CFA7E
:102100005C214DF2091001F077FA00214DF20A101E
:1021100001F072FA81214DF20B1001F06DFA0021ED
:102120004DF20C1001F068FAA6214DF20D1001F0ED
:1021300063FA00214DF20E1001F05EFAE5214DF236
:102140000F1001F059FA01214DF2101001F054FA6C
:1021500013214DF2111001F04FFA01214DF212102E
:1021600001F04AFA54214DF2131001F045FA012111
:102170004DF2141001F040FA82214DF2151001F0D9
:102180003BFA01214DF2161001F036FACA214DF248
:10219000171001F031FA02214DF2181001F02CFA5B
:1021A00000214DF2191001F027FA02214DF21A1008
:1021B00001F022FA01214DF21B1001F01DFA02215B
:1021C0004DF21C1001F018FA34214DF21D1001F0EF
:1021D00013FA02214DF21E1001F00EFA67214DF2A2
:1021E0001F1001F009FA02214DF2201001F004FA4B
:1021F00084214DF2211001F0FFF902214DF222104D
:1022000001F0FAF9A4214DF2231001F0F5F90221B1
:102210004DF2241001F0F0F9B7214DF2251001F034
:10222000EBF902214DF2261001F0E6F9CF214DF233
:10223000271001F0E1F902214DF2281001F0DCF93C
:10224000DE214DF2291001F0D7F902214DF22A10BA
:1022500001F0D2F9F2214DF22B1001F0CDF902215B
:102260004DF22C1001F0C8F9FE214DF22D1001F0B5
:10227000C3F903214DF22E1001F0BEF910214DF2E9
:102280002F1001F0B9F903214DF2301001F0B4F92B
:1022900033214DF2311001F0AFF903214DF232102C
:1022A00001F0AAF96D214DF2331001F0A5F90021DA
:1022B0004FF4524001F0A0F933214DF2012001F01A
:1022C0009BF900214DF2022001F096F9342101E042
:1022D000140100204DF2032001F08EF900214DF28F
:1022E000042001F089F93A214DF2052001F084F92A
:1022F00000214DF2062001F07FF94A214DF207201E
:1023000001F07AF900214DF2082001F075F95C2105
:102310004DF2092001F070F900214DF20A2001F080
:102320006BF981214DF20B2001F066F900214DF28D
:102330000C2001F061F9A6214DF20D2001F05CF9AD
:1023400000214DF20E2001F057F9E5214DF20F204A
:1023500001F052F901214DF2102001F04DF9132145
:102360004DF2112001F048F901214DF2122001F047
:1023700043F954214DF2132001F03EF901214DF2B1
:10238000142001F039F982214DF2152001F034F9C1
:1023900001214DF2162001F02FF9CA214DF217202C
:1023A00001F02AF902214DF2182001F025F900214F
:1023B0004DF2192001F020F902214DF21A2001F00E
:1023C0001BF901214DF21B2001F016F902214DF2FB
:1023D0001C2001F011F934214DF21D2001F00CF9FF
:1023E00002214DF21E2001F007F967214DF21F2056
:1023F00001F002F902214DF2202001F0FDF88421C4
:102400004DF2212001F0F8F802214DF2222001F0D6
:10241000F3F8A4214DF2232001F0EEF802214DF251
:10242000242001F0E9F8B7214DF2252001F0E4F86D
:1024300002214DF2262001F0DFF8CF214DF22720B6
:1024400001F0DAF802214DF2282001F0D5F8DE2162
:102450004DF2292001F0D0F802214DF22A2001F09E
:10246000CBF8F2214DF22B2001F0C6F802214DF2FB
:102470002C2001F0C1F8FE214DF22D2001F0BCF816
:1024800003214DF22E2001F0B7F810214DF22F203C
:1024900001F0B2F803214DF2302001F0ADF8332104
:1024A0004DF2312001F0A8F803214DF2322001F065
:1024B000A3F86D214DF2332001F09EF800214FF476
:1024C000534001F099F833214DF2013001F094F8B6
:1024D00000214DF2023001F08FF834214DF203302B
:1024E00001F08AF800214DF2043001F085F83A211C
:1024F0004DF2053001F080F800214DF2063001F078
:102500007BF84A214DF2073001F076F800214DF2B8
:10251000083001F071F85C214DF2093001F06CF8DF
:1025200000214DF20A3001F067F881214DF20B30A5
:1025300001F062F800214DF20C3001F05DF8A621A7
:102540004DF20D3001F058F800214DF20E3001F03F
:1025500053F8E5214DF20F3001F04EF801214DF214
:10256000103001F049F813214DF2113001F044F818
:1025700001214DF2123001F03FF854214DF2133099
:1025800001F03AF801214DF2143001F035F88221C2
:102590004DF2153001F030F801214DF2163001F006
:1025A0002BF8CA214DF2173001F026F802214DF226
:1025B000183001F021F800214DF2193001F01CF81B
:1025C00002214DF21A3001F017F801214DF21B30B3
:1025D00001F012F802214DF21C3001F00DF8342107
:1025E0004DF21D3001F008F802214DF21E3001F0CD
:1025F00003F867214DF21F3000F0FEFF02214DF27B
:10260000203000F0F9FF84214DF2213000F0F4FF7A
:1026100002214DF2223000F0EFFFA4214DF22330D1
:1026200000F0EAFF02214DF2243000F0E5FFB7216F
:102630004DF2253000F0E0FF02214DF2263000F08F
:10264000DBFFCF214DF2273000F0D6FF02214DF203
:10265000283000F0D1FFDE214DF2293000F0CCFF10
:1026600002214DF22A3000F0C7FFF2214DF22B304B
:1026700000F0C2FF02214DF22C3000F0BDFFFE2120
:102680004DF22D3000F0B8FF03214DF22E3000F056
:10269000B3FF10214DF22F3000F0AEFF03214DF2B9
:1026A000303000F0A9FF33214DF2313000F0A4FFAB
:1026B00003214DF2323000F09FFF6D214DF2333097
:1026C00000F09AFF00214FF4544000F095FF3321B1
:1026D0004DF2014000F090FF00214DF2024000F069
:1026E0008BFF34214DF2034000F086FF00214DF2B4
:1026F000044000F081FF3A214DF2054000F07CFFDC
:1027000000214DF2064000F077FF4A214DF20740CC
:1027100000F072FF00214DF2084000F06DFF5C21D7
:102720004DF2094000F068FF00214DF20A4000F030
:1027300063FF81214DF20B4000F05EFF00214DF25E
:102740000C4000F059FFA6214DF20D4000F054FF5F
:1027500000214DF20E4000F04FFFE5214DF20F40F9
:1027600000F04AFF01214DF2104000F045FF132117
:102770004DF2114000F040FF01214DF2124000F0F7
:102780003BFF54214DF2134000F036FF01214DF282
:10279000144000F031FF82214DF2154000F02CFF73
:1027A00001214DF2164000F027FFCA214DF21740DB
:1027B00000F022FF02214DF2184000F01DFF002121
:1027C0004DF2194000F018FF02214DF21A4000F0BE
:1027D00013FF01214DF21B4000E005E300F00CFF68
:1027E00002214DF21C4000F007FF34214DF21D4044
:1027F00000F002FF02214DF21E4000F0FDFE6721B5
:102800004DF21F4000F0F8FE02214DF2204000F092
:10281000F3FE84214DF2214000F0EEFE02214DF244
:10282000224000F0E9FEA4214DF2234000F0E4FE36
:1028300002214DF2244000F0DFFEB7214DF2254089
:1028400000F0DAFE02214DF2264000F0D5FECF2145
:102850004DF2274000F0D0FE02214DF2284000F05A
:10286000CBFEDE214DF2294000F0C6FE02214DF2E2
:102870002A4000F0C1FEF2214DF22B4000F0BCFED8
:1028800002214DF22C4000F0B7FEFE214DF22D400A
:1028900000F0B2FE03214DF22E4000F0ADFE1021FB
:1028A0004DF22F4000F0A8FE03214DF2304000F021
:1028B000A3FE33214DF2314000F09EFE03214DF284
:1028C000324000F099FE6D214DF2334000F094FE4D
:1028D00000214FF4554000F08FFE33214DF201509E
:1028E00000F08AFE00214DF2025000F085FE3421F6
:1028F0004DF2035000F080FE00214DF2045000F034
:102900007BFE3A214DF2055000F076FE00214DF29B
:10291000065000F071FE4A214DF2075000F06CFEA7
:1029200000214DF2085000F067FE5C214DF2095085
:1029300000F062FE00214DF20A5000F05DFE8121A0
:102940004DF20B5000F058FE00214DF20C5000F0FB
:1029500053FEA6214DF20D5000F04EFE00214DF227
:102960000E5000F049FEE5214DF20F5000F044FEFC
:1029700001214DF2105000F03FFE13214DF2115095
:1029800000F03AFE01214DF2125000F035FE5421C4
:102990004DF2135000F030FE01214DF2145000F0C2
:1029A0002BFE82214DF2155000F026FE01214DF242
:1029B000165000F021FECA214DF2175000F01CFE07
:1029C00002214DF2185000F017FE00214DF219506F
:1029D00000F012FE02214DF21A5000F00DFE01210E
:1029E0004DF21B5000F008FE02214DF21C5000F089
:1029F00003FE34214DF21D5000F0FEFD02214DF288
:102A00001E5000F0F9FD67214DF21F5000F0F4FD5B
:102A100002214DF2205000F0EFFD84214DF22150B3
:102A200000F0EAFD02214DF2225000F0E5FDA42164
:102A30004DF2235000F0E0FD02214DF2245000F051
:102A4000DBFDB7214DF2255000F0D6FD02214DF2FD
:102A5000265000F0D1FDCF214DF2275000F0CCFDE3
:102A600002214DF2285000F0C7FDDE214DF2295021
:102A700000F0C2FD02214DF22A5000F0BDFDF2210E
:102A80004DF22B5000F0B8FD02214DF22C5000F019
:102A9000B3FDFE214DF22D5000F0AEFD03214DF2AD
:102AA0002E5000F0A9FD10214DF22F5000F0A4FD92
:102AB00003214DF2305000F09FFD33214DF2315093
:102AC00000F09AFD03214DF2325000F095FD6D218A
:102AD0004DF2335000F090FD00214FF4564000F0CD
:102AE0008BFD33214DF2016000F086FD00214DF297
:102AF000026000F081FD34214DF2036000F07CFDA6
:102B000000214DF2046000F077FD3A214DF205609E
:102B100000F072FD00214DF2066000F06DFD4A21CB
:102B20004DF2076000F068FD00214DF2086000F0F2
:102B300063FD5C214DF2096000F05EFD00214DF265
:102B40000A6000F059FD81214DF20B6000F054FD48
:102B500000214DF20C6000F04FFDA6214DF20D60FA
:102B600000F04AFD00214DF20E6000F045FDE52128
:102B70004DF20F6000F040FD01214DF2106000F0B9
:102B80003BFD13214DF2116000F036FD01214DF2A5
:102B9000126000F031FD54214DF2136000F02CFD65
:102BA00001214DF2146000F027FD82214DF21560E5
:102BB00000F022FD01214DF2166000F01DFDCA213A
:102BC0004DF2176000F018FD02214DF2186000F080
:102BD00013FD00214DF2196000F00EFD02214DF2AF
:102BE0001A6000F009FD01214DF21B6000F004FDA8
:102BF00002214DF21C6000F0FFFC34214DF21D60FB
:102C000000F0FAFC02214DF21E6000F0F5FC672195
:102C10004DF21F6000F0F0FC02214DF2206000F048
:102C2000EBFC84214DF2216000F0E6FC02214DF224
:102C3000226000F0E1FCA4214DF2236000F0DCFCF6
:102C400002214DF2246000F0D7FCB7214DF225603F
:102C500000F0D2FC02214DF2266000F0CDFCCF2125
:102C60004DF2276000F0C8FC02214DF2286000F010
:102C7000C3FCDE214DF2296000F0BEFC02214DF2C2
:102C80002A6000F0B9FCF2214DF22B6000F0B4FC98
:102C900002214DF22C6000F0AFFCFE214DF22D60C0
:102CA00000F0AAFC03214DF22E6000F0A5FC1021DB
:102CB0004DF22F6000F0A0FC03214DF2306000F0D7
:102CC0009BFC33214DF2316000F096FC03214DF264
:102CD000326000F091FC6D214DF2336000F08CFC0D
:102CE00055214FF4704000F087FCAA214FF20100FB
:102CF00000F082FC52214FF2020000F07DFC08211E
:102D00004FF2030000F078FC00214FF2040000F0C5
:102D100073FCCC214FF4314000F06EFC00214BF2EB
:102D2000011000F069FC05214FF4364000F064FC0E
:102D300070214FF4374000F05FFC70214BF20170BE
:102D400000F05AFC01214FF4384000F055FC0321FB
:102D50004BF6010000F050FC03214BF6020000F09E
:102D60004BFC03214BF6030000F046FC02214FF41C
:102D70003C4000F041FC00214BF6014000F03CFCDF
:102D800000214BF6024000F037FCD0214FF44940BF
:102D900000F032FC02214CF6011000F02DFC502115
:102DA0004CF6021000F028FC50214CF6031000F005
:102DB00023FC50214CF6041000F01EFC00214FF4BF
:102DC000545000F019FC55214FF4685000F014FCE9
:102DD0004FF4885000F0FAFB782001F083FB4FF4A9
:102DE000245000F0F3FBBDE07E48808841F663117B
:102DF0008842F8D1E22000F0E9FB1D2000F0DAFB68
:102E0000022000F0D7FB042000F0D4FB642001F086
:102E100069FBE02000F0DAFB012000F0CBFB0A2088
:102E200001F044FBE02000F0D1FB032000F0C2FBE6
:102E30000C2001F03BFB012000F0C8FB0A2001F050
:102E400035FBE62000F0C2FB2F2000F0B3FBFF2093
:102E500000F0B0FBFF2000F0ADFBB02000F0B6FBAF
:102E6000202000F0A7FB002000F0A4FB032000F0CE
:102E7000A1FB40F21F3000F09DFB012000F09AFB07
:102E800040F2DF1000F096FB002000F093FBB4202E
:102E900000F09CFB042000F08DFB40F21F4000F08E
:102EA00089FB002000F086FB2E2000F083FB002031
:102EB00000F080FB002000F07DFB002000F07AFB9A
:102EC000002000F077FBB62000F080FB022000F02D
:102ED00071FB4FF4037000F06DFB002000F06AFB03
:102EE000172000F067FB152000F064FB002000F0C5
:102EF00061FB002000F05EFBF02000F067FB032088
:102F000000F058FB292000F061FBD02000F05EFBB0
:102F1000002000F04FFBBE2000F058FB052000F021
:102F200049FBFE2000F046FB012000F043FB00209F
:102F300000F040FB002000F03DFB002000F03AFBD9
:102F4000B82000F043FB032000F034FB012000F028
:102F500031FBBA2000F03AFB012000F02BFB64208B
:102F600000F050F81F48808849F24131884211D062
:102F70001C48808845F2103188420BD0194880885F
:102F800045F21051884205D01648808841F66311F9
:102F900088421CD11448006820F00F004FF02041F7
:102FA000C1F804010846D0F8040120F47060C1F8AB
:102FB00004010846D0F8040140F00400C1F80401FF
:102FC0000846D0F8040140F48060C1F804010020F4
:102FD000FDF7F4FB0120054908604FF6FF70FDF78F
:102FE000C9FB1CBD14010020040100A094824042D2
:102FF00008B5034800880090BDF8000008BD000037
:103000000000086070B52DED048B0446BE2000F072
:10301000DDFA052000F0CEFA204601F0F6FD41EC85
:10302000190B9FED0E0B53EC102B01F001FE41EC40
:10303000180B01F0BDFD85B2284600F0BBFA012057
:1030400000F0B8FAFF2000F0B5FA002000F0B2FA64
:10305000002000F0AFFABDEC048B70BD66666666BA
:1030600066660440F0B5054600240027994880793B
:10307000012805D19748808841F66311884208D11C
:1030800094488079F0B99348808841F6631188426A
:1030900018D1082D15D2DFE805F00406080A0C0E39
:1030A000101206250DE007250BE0042509E0052593
:1030B00007E0012505E0002503E0032501E00225E6
:1030C00000BF00BF8348808849F24131884211D057
:1030D0008048808845F2103188420BD07D48808836
:1030E00045F21051884205D07A48808841F6631134
:1030F00088427DD1082D1CD2DFE805F00406090CBA
:103100000F12151800BF14E044F0800411E044F0E1
:1031100040040EE044F0C0040BE044F0200408E05A
:1031200044F0600405E044F0A00402E044F0E00450
:1031300000BF00BF6748808845F21051884202D125
:103140004FF4585700E036276248808845F2103126
:1031500088420DD05F48808845F21051884207D0E0
:103160005C48808841F66311884201D044F008042D
:103170002146384600F040FA5648808841F66311EF
:1031800088421DD004F0200068B15248008851499F
:103190004988884214DA4F48068840884D4908809B
:1031A000084646800CE04B4800884A4949888842D6
:1031B00006DD48480688408846490880084646801B
:1031C0004448808845F21051884254D14149488989
:1031D00000F0FCF9002000F0EDF93E494989491C56
:1031E00088B200F0F3F9002000F0E4F9394900E07A
:1031F0006FE04989891C88B200F0E8F935490988EF
:10320000491EC1F30F2000F0D5F932494989C91C84
:1032100088B200F0DBF92F490978491EC8B200F0E6
:10322000C9F92C49888900F0D1F9002000F0C2F9D1
:1032300028498989491C88B200F0C8F9002000F0AB
:10324000B9F924498989891C88B200F0BFF921495C
:103250004988491EC1F30F2000F0ACF91D49898946
:10326000C91C88B200F0B2F91A498978491EC8B25F
:1032700000F0A0F92DE01749488900F0A7F90020D7
:1032800000F098F9002000F095F912490988491ECC
:10329000C1F30F2000F08EF90E490978491EC8B21B
:1032A00000F088F90B49888900F090F9002000F0BF
:1032B00081F9002000F07EF906494988491EC1F3D2
:1032C0000F2000F077F903498978491EC8B200F051
:1032D00071F9F0BD1401002010B502460C464B48B0
:1032E000808849F24131884205D04848808845F2BB
:1032F0001031884214D14549488900F067F910120D
:1033000000F058F9D0B200F055F94049888900F032
:103310005DF9201200F04EF9E0B200F04BF973E0D5
:103320003A48808841F66311884247D1374880790E
:10333000A8B936480088401E801A82B233494889AD
:1033400000F044F9002000F035F9002000F032F9D7
:10335000101200F02FF9D0B200F02CF916E02B4932
:10336000488900F033F9101200F024F9D0B200F0CF
:1033700021F926490988491EC1F30F2000F01AF9E6
:1033800022490978491EC8B200F014F91F498889FA
:1033900000F01CF9201200F00DF9E0B200F00AF97B
:1033A0001A494988491EC1F30F2000F003F9174953
:1033B0008978491EC8B200F0FDF825E013488088DE
:1033C00045F2105188421FD11049488900F0FEF89B
:1033D000101200F0EFF80D494989491C88B200F03D
:1033E000F5F8D0B200F0E6F80849888900F0EEF868
:1033F000201200F0DFF805498989491C88B200F0E5
:10340000E5F8E0B200F0D6F810BD0000140100208D
:103410002DE9F84F80460F4616461C46BB4620460F
:10342000E31704EB5373DB1021464FEAE47C04EB13
:103430005C7C4FEAEC0CA4EBCC0CBCF1000F02D08E
:103440004FF0010C01E04FF0000C6344224604EB06
:10345000D27C4FEA6C0C03FB0CF3DBB20093A6F1B9
:103460002000C6B200255EE00C2C07D106EB46001A
:103470002F4901EB800010F805901BE0102C05D1BE
:103480002C4800EB061010F8059013E0182C07D11B
:1034900006EBC600284901EB800010F8059009E012
:1034A000202C05D1254800EBC61010F8059001E04E
:1034B000BDE8F88F4FF0000A2FE009F0800030B12E
:1034C0001F48394602684046FDF738FA07E00A9877
:1034D00028B91C48394602684046FDF72FFA4FEAE2
:1034E00049604FEA1069781C87B217484088B84293
:1034F00000DCDDE7A7EB0B00A0420AD15F4608F134
:1035000001001FFA80F810480088404500DCCFE732
:1035100006E00AF1010000F0FF0ABAF1080FCCDB67
:1035200000BF681CC5B2009885429DDB00BFBFE7A5
:10353000604E0008D4520008C458000820660008F5
:103540003C00002040000020140100202DE9F84F2D
:1035500004460D4690469946DDE90A6704F0FF0AE5
:1035600008EB04001FFA80F809EB05001FFA80F948
:1035700016E0444502DB5446A81985B24D4500DBF0
:1035800014E0002000903A78334629462046FFF7A1
:103590003FFF304606EBD07104EB61018CB27F1C1B
:1035A00038787E2802DC38782028E2DA00BFBDE8CF
:1035B000F88F000001B5BDF800000090BDF80000D4
:1035C0000149088008BD00000000086001B5BDF891
:1035D00000000090BDF800000149088008BD00000F
:1035E000FEFF07600248008902490880704700001A
:1035F00014010020FEFF0760024A1080921C118017
:1036000070470000FEFF076018B5044606480094A6
:10361000008B401E83B20448C08A401E82B2002143
:10362000084600F08DF818BD24010020F0B50346CF
:103630000C461546002100200022214E366826F057
:1036400080561F4F3E6001E04E1CB1B21C4E3668E2
:1036500006F000561EB141F6FF76B142F4DB41F6AA
:10366000FF76B14201D1012029E042EA831242EA09
:103670000472134E88363260361D366826F44036A2
:103680000F4F8C373E603E46366846EA05463E6040
:103690000B4E366846F08056094F3E6001E04E1CE6
:1036A000B1B2074E366806F000561EB941F6FF76F5
:1036B000B142F4DB41F6FF76B14200D10220F0BD09
:1036C000003802400949487530B98988074AD182D3
:1036D00011460988118308E0012806D103490988A9
:1036E000024AD18211468988118370472401002043
:1036F00070B5114B5B7D6BB10F4BDB690E4D2D68C7
:1037000005FB01056B430C4D2D7D0C4E56F82550E5
:10371000EA520FE0084B1D685B681B1A5B1E05FB35
:103720000313054DED696B43034D2D7D034E56F894
:103730002550EA5270BD0000240100204400002002
:103740002DE9F04F04460D4616464FF0000CDFF809
:10375000289199F81590B9F1000F04D02046294618
:1037600032461F4611E02846DFF80C91D9F8049044
:10377000A9EB0609A9F101011A46DFF8FC90D9F876
:103780000490A9EB0409A9F10107DFF8EC90B9F85E
:103790000090A2EB000A0AF1010AA9EB0A091FFA3C
:1037A00089F8DFF8D49099F81490DFF8D0A05AF88F
:1037B0002990DFF8C4A0DAF81CA0DFF8BCB0DBF871
:1037C00000B00BFB010B0AFB0B9EDFF8B490D9F89D
:1037D000009049F40009DFF8A8A0CAF80090DFF8CB
:1037E000A490D9F8009029F00109DFF898A0CAF850
:1037F00000904FF44039CAF800904FF00209CAF81F
:103800003490D146C9F84080C9F83CE0A7EB0109E3
:1038100009F10109A2EB000A0AF1010A49EA0A4981
:10382000DFF860A0CAF84490DDF82490CAF8389018
:10383000D146D9F8009049F00109CAF8009005E096
:103840000CF1010CBCF5001F00D308E0DFF8349048
:10385000D9F8049009F00209B9F1000FF0D000BFC7
:10386000DFF82090D9F8089049F00209DFF814A099
:10387000CAF80890BDE8F08F240100204400002021
:103880003038024000B002407FB50024002500F02F
:10389000D1FA0546D348006840F08060D1490860FD
:1038A000D0481438006840F00200CE49143908604E
:1038B0000846006840F4F0700860012002210023EF
:1038C0000246CDE900102021C748FCF7E3FE0120A5
:1038D000032100230222CDE900108102C348FCF736
:1038E000D9FE0120032100230222CDE900104FF46C
:1038F0000C61BF48FCF7CEFE012003210023022209
:10390000CDE900104FF47E41BA48FCF7C3FE012018
:10391000032100230222CDE9001040F2F761B648EE
:10392000FCF7B8FE0E220A21B048FCF793FE0E22E7
:103930000621AF48FCF78EFE0E220721AC48FCF7AB
:1039400089FE0E220B21AA48FCF784FE0E220921D3
:10395000A848FCF77FFE0E220A21A648FCF77AFE53
:103960000E220B21A348FCF775FE0E220C21A14864
:10397000FCF770FE0E220D219E48FCF76BFE0E2216
:1039800011469C48FCF766FE0E220F219948FCF771
:1039900061FE0E2200219848FCF75CFE0E220121F8
:1039A0009548FCF757FE0E2202219348FCF752FE81
:1039B0000E2204219048FCF74DFE0E2205218E4870
:1039C000FCF748FE0E2206218B48FCF743FE0E2230
:1039D00007218948FCF73EFE0E2209218648FCF7A4
:1039E00039FE0E220A218448FCF734FE44F24230AC
:1039F000854218D14FF4F070804908604FF4887008
:103A00004860012008814881282088810820C881D9
:103A10000520088208204882022204214FF4907079
:103A2000FFF704FE50E047F28400854218D14FF4BE
:103A30004870724908604FF4F070486001200881B6
:103A400048812E2088811720C881D2200882162024
:103A50004882012203214FF4C670FFF7E7FD33E0EF
:103A600047F21600854219D14FF48060634908601F
:103A70004FF41670486014200881032048818C2080
:103A800088811420C881A02008820C20488201224D
:103A900002214FF4B470FFF7C9FD15E047F218009A
:103AA000854207D14FF4A060544908604FF4487034
:103AB000486009E048F21600854205D140114F499F
:103AC00008604FF416704860002400BF00BF00BFBC
:103AD0004B48046049484089441E48480089401EBC
:103AE00044EA004446481038046044484089434949
:103AF000C9890844441E41480089404989890844CD
:103B0000401E44EA00443E480C3804603B4840896B
:103B10003A49C9890844394949680844441E374824
:103B20000089364989890844344909880844401E77
:103B300044EA0044324808380460304840892F493C
:103B4000C98908442D49496808442C49498A0844D0
:103B5000441E2A4800892949898908442749098837
:103B600008442649098A0844401E44EA004424487F
:103B7000001F04600020224914310860012000F079
:103B8000AFF920482049086002201C49C861002084
:103B900007210622CDE90002CDE902101A48FF23D1
:103BA00002220168002000F035F81448808880B2B5
:103BB00000901248008883B200221146104600F09F
:103BC0009DF80E480088114908800C48808848807C
:103BD000002000F07FF901200D490860801EFFF7EA
:103BE00013FD7FBD4438024000040240001402402F
:103BF00000180240001C0240002002402401002066
:103C000018680140000000C044000020140100209A
:103C1000948240422DE9F04106ACF0CCE0B9DFF8E7
:103C200078C0CCF80010DFF870C0ACF1180CCCF8FC
:103C300000200CF1040CCCF8003047EA046CDFF8EB
:103C40005880A8F11008C8F800C046EA052C08F111
:103C50000408C8F800C01DE0DFF83CC00CF1800C7F
:103C6000CCF80010DFF830C00CF1680CCCF8002064
:103C70000CF1040CCCF8003047EA046CDFF8188033
:103C800008F17008C8F800C046EA052C08F10408DD
:103C9000C8F800C0BDE8F081AC680140012910D12E
:103CA00030B9154A126842F00102134B1A6019E04C
:103CB000114A8032126842F001020F4B80331A60C1
:103CC00010E079B930B90C4A126822F001020A4BAF
:103CD0001A6007E0084A8032126822F00102064B9F
:103CE00080331A60044A603A126842F00102024BC3
:103CF000603B1A6070470000846801402DE9F0477E
:103D000082460F4690461E46DDF820900025BAF107
:103D1000000F43D1B81945490968C1F30B41084464
:103D2000040442480068C0F30B403844401C204360
:103D30003E497C31086008EB09003C490968C1F341
:103D40000A010844040439480068C0F30A004044EA
:103D5000401C204335498031086034488830006871
:103D600000F007050DB904240AE0012D01D1032458
:103D700006E0052D01D0062D01D1012400E002242A
:103D800006FB04F0C01C06FB04F140EA0140274991
:103D9000A4310860081DC0F8009041E0B81923491B
:103DA0000968C1F30B410844040420480068C0F3CB
:103DB0000B403844401C20431C49FC31086008EB90
:103DC00009001A490968C1F30A01084404041748A4
:103DD0000068C0F30A004044401C204314490860B6
:103DE00013480830006800F007050DB904240AE004
:103DF000012D01D1032406E0052D01D0062D01D1AE
:103E0000012400E0022406FB04F0C01C06FB04F1C0
:103E100040EA0140064924310860081DC0F80090BE
:103E200001215046FFF73AFFBDE8F0870C680140DA
:103E30000C6901401CB500242048006840F4A070C3
:103E40001E490860012000210B460A46CDE90010FA
:103E500040211B48FCF71EFC012000210B460A46AE
:103E6000CDE9001084211748FCF714FC16480068BF
:103E7000C4B21648D0F8080244EA4000C4B214485C
:103E8000006844EA8000C4B214B944F242301CBD58
:103E9000012C02D147F28400F9E7022C02D147F24B
:103EA0001600F4E7032C02D147F21800EFE7042CC8
:103EB00002D148F21600EAE70020E8E73038024075
:103EC0000018024000200240180243420000444211
:103ED0001C0244420149087570470000240100207B
:103EE000012806D10749096841F00101054A11601E
:103EF00006E028B90349096821F00101014A11606F
:103F000070470000186801402DE9F04107468846D7
:103F100014461D46284600F033F8C5F1040007FAA0
:103F200000F60F20284100EA0800064306F00F06BD
:103F3000E21704EBD2625211920002F1E022D2F8B1
:103F400000212146E31704EBD3635B11A4EB431C70
:103F5000012303FA0CF31A432046E31704EBD3635F
:103F60005B119B0003F1E023C3F800210348005DCF
:103F700040EA061001490855BDE8F08100E400E080
:103F80000146072323EA01021202054B18684FF687
:103F9000FF031840034B18431043014B1860704750
:103FA0000CED00E00000FA054A0A52020243014B00
:103FB0001A60704708ED00E0F0B504460D46002693
:103FC00000212943C4F104070120B840014341EA1C
:103FD000421141EA43210948016005E0761CB6F52B
:103FE000001F01D30120F0BD04480830006800F034
:103FF00020000028F2D100BFF5E70000500100A02A
:10400000F0B504460D4616461F461448006840F0B9
:1040100001001249086000201049083108600F486B
:1040200000680F4908400D4908600E48091D0860E6
:10403000081F006820F48020091F0860002007493D
:104040000C3108603B4632462946204600F00CF809
:1040500000210846FFF7A8FFF0BD0000003802402D
:10406000FFFFF6FE10300024F0B504460D46002197
:1040700000203D4E366846F480363B4F3E6001E0FE
:104080004E1CB1B2384E366806F400361EB941F601
:10409000FF76B142F4DB41F6FF76B14201D1012057
:1040A00060E0314E4036366846F080562E4F40373D
:1040B0003E602E4E366846F440462C4F3E602A4EF7
:1040C0000836366846F41446274F08373E60264EB9
:1040D000366826F08076244F3E6045EA8416012734
:1040E000C7EB520746EA074646EA036646F48006EF
:1040F0001D4F3F1D3E603E1F366846F080763F1FD5
:104100003E6000BF184E366806F00076002EF9D0EB
:10411000174E366846F48076154F3E603E46366848
:1041200046F400763E603E46366846F480663E6061
:104130003E46366846F005063E600B4E0836366849
:1041400026F00306084F08373E603E46366846F0C4
:1041500002063E6000BF044E0836366806F00C06C4
:10416000082EF8D1F0BD0000003802400070004079
:10417000003C024070B5144C1448006800F0010087
:1041800000B31248006820F0010010490860104890
:104190001049097850F8215005E06068284008B1BE
:1041A00020688047083420680028F6D10948007844
:1041B000401C08490870084600780A2801DB0020E6
:1041C000087000BF70BD0000100000201004004007
:1041D000384E00080C0000203649096888B236497C
:1041E000097801F08001002960D100F00101D1B10E
:1041F0003149097801F04001A9B12F49097801F04E
:104200003F013F290AD12C49097841F080012A4A0F
:1042100011704FF0FF31294A116004E026490978F6
:10422000491C254A117000F00201E9B322490978BE
:1042300001F0400199B12049097841F080011E4AFE
:1042400011701C49243109681C4A11601949103148
:10425000096821F00201174A1032116026E000219E
:10426000154A1170154A11601349097841F040014F
:10427000114A11700F491039096821F001010D4AE6
:10428000103A116000210B4A14321160111F0968A5
:1042900041F00201121F116006491039096841F00E
:1042A0000101044A103A00E000E011600021014AD7
:1042B00011607047100C00403600002038000020CC
:1042C0001C49096801F0200109B31A494968C8B2BC
:1042D0001949098801F40041C9B91749098801F44D
:1042E000804161B10A2803D00021134A118020E0E7
:1042F0001149098841F400410F4A118019E00D2845
:1043000006D10D49098841F480410B4A118010E023
:1043100009490988C1F30D01084A50540649098822
:10432000491C054A118011460988C72901DD002171
:104330001180704700100140080000204C00002050
:1043400000BF70471CB52E48006840F001002C49A2
:1043500008600220032100230246CDE9001001215C
:104360002848FCF797F9022200212648FCF772F949
:1043700023481030006840F00800214910310860DF
:104380005920214908604FF0FF30091D08601E4880
:10439000283800681C49283908601B481038006814
:1043A0001949103908600846006840F001000860AB
:1043B000154808380068144908390860084600683C
:1043C00040F00100086010482838006840F0010003
:1043D0000D49283908600C481C38006840F002007C
:1043E00009491C3908600846006840F0010008606F
:1043F0000223322200211846FFF786FD1CBD000073
:104400003038024000000240280C00402DE9F04105
:1044100000BF1248007800F08000E8B10F48007833
:1044200000F03F00C51704464FF0FF330026214639
:10443000A1FB030705FB037204FB0625044608489D
:104440000068241845F1000522462B4605A0FBF71D
:104450002DFF002001490870BDE8F08136000020E2
:1044600038000020484947483A256C6C6420757331
:104470000D0A00004FF0E021096921F004014FF01E
:10448000E0221161C21700EB5272C2F3C702054B62
:104490001A704FF47A714143C1F3CF01024A11807F
:1044A00070470000000000200200002070B50446A4
:1044B0004FF4077094FBF0F0C6B24FF4077094FB12
:1044C000F0F100FB114085B205E04FF4077000F0F9
:1044D00027F8701EC6B2002EF7D115B1284600F09D
:1044E0001FF870BD01460D4A12784A434FF0E02391
:1044F0005A6100229A6101221A6100BF4FF0E02246
:10450000106900F001021AB100F48032002AF5D0DF
:1045100000224FF0E0231A619A61704700000020EA
:1045200001460D4A12884A434FF0E0235A610022A7
:104530009A6101221A6100BF4FF0E022106900F079
:1045400001021AB100F48032002AF5D000224FF0A7
:10455000E0231A619A6170470200002000BF054AFB
:10456000126802F04002002AF9D0C2B2014B5A6030
:1045700070470000001001401CB50A48006840F078
:104580000200084908600120032100230246CDE90A
:10459000001002210448FCF77DF80120034908605F
:1045A0001CBD0000303802400004024084824042BA
:1045B0001148007898B911480078012803D10020EB
:1045C0000F49086002E001200D4908600B4800789F
:1045D000012801D0012000E00020084908700648A9
:1045E0000078401C04490870084600780A2801DB5E
:1045F00000200870704700000A0000200B00002017
:10460000848240421CB517A40025082302221921E8
:104610004FF4B470FFF7F4FCB420FFF72BFF4FF416
:10462000E1315A2000F044FAFFF7A6FF00F012FA39
:1046300000F01AF8FFF786FE00F0A6F800F0A2F8E6
:10464000FCF70EFA20208423DC22F021CDE90004BF
:104650006420FEF77BFF04E00620FFF727FF681CBD
:10466000C5B2F9E76C6C6A001CB52E48006840F0D2
:1046700002002C4908600120032100230222CDE919
:10468000001001462848FCF705F8032200212648BF
:10469000FBF7E0FF23481430006840F00200214996
:1046A0001431086042F22730204908606320091D58
:1046B00008600A201D49103108601C481038006845
:1046C00040F4C0401949103908600846006840F4B9
:1046D0000060086015480838006840F04000134941
:1046E000083908600846006840F020000860084665
:1046F000006840F0100008600C481C30006840F46E
:1047000000400A491C31086008482838006840F019
:1047100080000649283908600846006840F001001A
:1047200008601CBD303802400004024028040140EB
:104730001148007868B911480078632805DA0F48F5
:104740000078401C0D49087010E001200A490870EB
:104750000CE00A480078002805DD08480078401E73
:104760000649087002E000200349087003480078F9
:10477000034908607047000031000020300000202D
:1047800038040140704700007CB500240025002655
:10479000A948006840F00100A7490860A648083809
:1047A000006840F07C00A44908390860012003211A
:1047B00000230222CDE900100D21A048FBF76AFF7B
:1047C0000120032100230222CDE900104CF20371E5
:1047D0009B48FBF75FFF0120032100230222CDE964
:1047E00000104FF683719748FBF754FF0120032117
:1047F00000230222CDE900104FF63F019248FBF75B
:1048000049FF0120032100230222CDE9001048F2D4
:1048100037118E48FBF73EFF0C2200218748FBF73B
:1048200019FF0C2202218548FBF714FF0C220321FB
:104830008248FBF70FFF0C2200218148FBF70AFF9B
:104840000C2201217E48FBF705FF0C2208217C4841
:10485000FBF700FF0C2209217948FBF7FBFE0C2235
:104860000A217748FBF7F6FE0C220E217448FBF76D
:10487000F1FE0C220F217248FBF7ECFE0C22002106
:104880007048FBF7E7FE0C2201216E48FBF7E2FEC1
:104890000C2207216B48FBF7DDFE0C22082169483A
:1048A000FBF7D8FE0C2209216648FBF7D3FE0C2249
:1048B0000A216448FBF7CEFE0C220B216148FBF76E
:1048C000C9FE0C2211465F48FBF7C4FE0C220D21E5
:1048D0005C48FBF7BFFE0C220E215A48FBF7BAFEDC
:1048E0000C220F215748FBF7B5FE0C220021564839
:1048F000FBF7B0FE0C2201215348FBF7ABFE0C2264
:1049000002215148FBF7A6FE0C2203214E48FBF77B
:10491000A1FE0C2204214C48FBF79CFE0C22052131
:104920004948FBF797FE0C220B214748FBF792FE04
:104930000C2211464448FBF78DFE0C220D21424803
:10494000FBF788FE0C220E213F48FBF783FE0C226A
:104950000F213D48FBF77EFE0C2200213B48FBF770
:1049600079FE0C2201213948FBF774FE0C2202214A
:104970003648FBF76FFE0C2204213448FBF76AFE31
:104980000C2205213148FBF765FE0C2208212F4837
:10499000FBF760FE0C220F212C48FBF75BFE44F076
:1049A000010444F0080444F0100444F0400444F4CA
:1049B000C07400BF44F4006444F4805400BF244831
:1049C000046045F0010545F0600545F4A06545F437
:1049D000A04545F4803545F4801545F08075C00547
:1049E000C0F8485100231A4601211846FFF7E4FA9F
:1049F0004FF4FA70FFF776FD00231A46022118469D
:104A0000FFF7DAFA0023082203211846FFF7D4FA49
:104A100046F0030600BF46F0300600BF46F40076BD
:104A20003346002204211046FFF7C6FA40F2B45084
:104A30000749143108607CBD383802400008024044
:104A4000000C024000100240001402400018024016
:104A5000400100A010B51448006840F0020012495F
:104A6000086042F22730114908606320091D086080
:104A700000200E49283908600C481C38006840F0B6
:104A800001000A491C39086002231D22032101206C
:104A9000FFF73AFA05482838006840F0010003495A
:104AA0002839086010BD000040380240280400404A
:104AB000F0B52DED028B83B005460E46384905FB57
:104AC00001F000EE100AF8EE400A300100EE100A84
:104AD000B8EE400A80EE801AB0EE418ABCEEC80AF9
:104AE00010EE100A84B200EE104AB8EE400A38EE1A
:104AF000400AF3EE000A20EE200ABCEEC00A10EED7
:104B0000107A4FF6FF7000EA0414E01984B22548C9
:104B1000006840F001002349086022481430006812
:104B200040F010001F4914310860012002210023C9
:104B30000A46CDE900104FF4C0611B48FBF7AAFDFF
:104B4000072209211848FBF785FD07220A2116488C
:104B5000FBF780FD15488460C06820F400401349CD
:104B6000C8600846C06840F00800C8600846C068D1
:104B700040F00400C8600846C06840F02000C860EB
:104B80000223252203210846FFF7BEF90748C06823
:104B900040F400500549C86003B0BDEC028BF0BD85
:104BA00040420F0030380240000002400010014037
:104BB0004FEA1153A3F58063D3F11E03A8BFD3F1CD
:104BC000200C08DB4FF0004242EAC12252EA505268
:104BD00032FA03F0704709420BD4102BC4BF0020F7
:104BE000704703F5787CBCF1FF3F05D04FF0FF30F4
:104BF00070474FF00000704770B500F0C3F800BF79
:104C00004992248000207047F0E7B0FA80F310FA50
:104C100003F10AD0C3F11D0303F580634FEA41504D
:104C20004FEA035202EBD12170474FF0000070476A
:104C3000DFF848C170B51CEA111E1EBF1CEA13152F
:104C40009EEA0C0F95EA0C0F00F06F8081EA0304D6
:104C500023EA4C134EEAD47E21EA4C1141F4801130
:104C600043F48013AE44A1FB024CA0FB0365AEF1FC
:104C70007F7E361955EB0C05A1FB034C4CF100036C
:104C8000A0FB021C16EB0C06654153F10003094220
:104C900018BF46F0010613F4007F0BD14FEA033131
:104CA0004FEA0530340341EA155140EA16506FF0DF
:104CB00003020AE04FEAC3214FEAC520F40241EAA9
:104CC000555140EA56506FF0020202EB2E4201EBC2
:104CD000025585EACE710AD05FEA440C18BF24F071
:104CE000004450F1000041F1000120EAD47040F28C
:104CF000FE7C624500D270BDA84214BF4FF08044D4
:104D00004FF04044002E08BF0024BEF1806FA8BFC2
:104D1000A1F1C041BDE8704080F282804FF00000F8
:104D200001F1C04101F0004170479EEA0C0F0CEA0E
:104D3000131518BF95EA0C0F06D04FF0000081EA5A
:104D4000030E0EF0004170BD00F01CF88900013E1A
:104D500000F007B800F009B84FEA430C5FEA5C5C6A
:104D600008D081EA030100F05BB84FEA410C5FEA2A
:104D70005C5CF6D14FF00000014970470000FF076E
:104D80000000F87F0EF1020E2EF0030E5EF8046BA9
:104D9000364205D4012A43EB030515F5001F12D84E
:104DA000012841EB010C1CF5001F0CD80ED14FEA75
:104DB000D17C15F5001F0CEB4C0C0CF1020C08BF5C
:104DC0004CEBD37C04E04FF0080C01E04FEAD37CBD
:104DD0000CEB4C0526FA05F606F00706B6F1040CB6
:104DE00006D20EEB860CBDE870404CF0010C60471B
:104DF000DFE80CF0090B02024FF000414FF0000019
:104E0000A1F5002170BD19461046012851EB01049F
:104E100018BFD4F5001484BF002001F0004170BD1C
:104E20000808A0F500114FEA310170474FF04070BB
:104E3000E1EE100A704700001B00000005000000B2
:104E40000300000005000000030000000D0000004A
:104E50000300000005000000030000000500000042
:104E60000000000000000000000000000000000042
:104E70003F40000000000000000030004000300013
:104E80004000000009000BC03D000BC03D000900C0
:104E900018C024407FE0224031800000180024C068
:104EA0001B000D803240018003801C4027401C8085
:104EB00007400040100060000000000000000000FB
:104EC0000000000000001F80204040200000402023
:104ED00020401F8000000000090006001F8006001F
:104EE00009000000040004003F80040004000000EA
:104EF000001000600000000000000000040004003A
:104F00000400040004000000000000400000000055
:104F100000000000002001C0060038004000000032
:104F20001F802040204020401F80000000001040D3
:104F30003FC000400000000018C021402240244033
:104F40001840000010802040244024401B800000B6
:104F500002000D0011003FC0014000003C802440D1
:104F600024402440238000001F80244024403440FB
:104F7000038000003000200027C03800200000001F
:104F80001B802440244024401B8000001C0022C0C1
:104F9000224022401F800000000000000840000066
:104FA000000000000000000004600000000000009D
:104FB000000004000A0011002080404009000900A0
:104FC0000900090009000000000040402080110095
:104FD0000A000400180020002340240018000000EC
:104FE0001F802040274029401F400000004007C08C
:104FF00039000F0001C0004020403FC02440244041
:105000001B8000001F802040204020403080000096
:1050100020403FC0204020401F80000020403FC073
:1050200024402E4030C0000020403FC024402E00CD
:10503000300000000F00108020402240338002002A
:1050400020403FC0040004003FC0204020402040DA
:105050003FC02040204000000060202020203FC0B2
:105060002000200020403FC024400B0030C02040E2
:1050700020403FC020400040004000C03FC03C00F6
:1050800003C03C003FC0000020403FC00C40230054
:105090003FC020001F802040204020401F80000093
:1050A00020403FC024402400180000001F80214001
:1050B000214020E01FA0000020403FC024402600E7
:1050C00019C0004018C02440244022403180000014
:1050D000300020403FC020403000000020003F80D2
:1050E000004000403F80200020003E0001C007003B
:1050F00038002000380007C03C0007C0380000001E
:10510000204039C0060039C020400000200038404F
:1051100007C0384020000000304021C02640384001
:1051200020C00000000000007FE040204020000080
:10513000000070000C0003800040000000004020D0
:1051400040207FE000000000000020004000200020
:1051500000000000001000100010001000100010EF
:10516000000000004000000000000000000002807D
:105170000540054003C0004020003FC004400440FB
:10518000038000000000038004400440064000004B
:1051900000000380044024403FC000400000038022
:1051A0000540054003400000000004401FC02440AB
:1051B00024402000000002E0055005500650042065
:1051C00020403FC00440040003C0004000000440F1
:1051D00027C000400000000000100010041027E06D
:1051E0000000000020403FC00140070004C0044010
:1051F000204020403FC000400040000007C00400A5
:1052000007C0040003C00000044007C004400400BD
:1052100003C00040000003800440044003800000FD
:10522000041007F0045004400380000000000380D5
:105230000440045007F00010044007C0024004007E
:1052400004000000000006400540054004C00000C6
:10525000000004001F80044000400000040007809C
:105260000040044007C000400400070004C0018063
:1052700006000400060001C0070001C0060000008F
:10528000044006C0010006C00440000004100710DE
:1052900004E00180060004000000044005C0064050
:1052A000044000000000000004007BE040200000FB
:1052B000000000000000FFF000000000000040209F
:1052C0007BE004000000000040008000400020005F
:1052D000200040000000000000000000000000006E
:1052E000000000000000000000001FCC000C0000C7
:1052F00000000000000008003000600008003000DE
:1053000060000000022003FC1E20022003FC1E207F
:105310000220000000000E1811043FFF10840C78DA
:10532000000000000F0010840F3800C007781884B8
:105330000078000000780F8410C411240E9800E457
:1053400000840008080068007000000000000000F1
:105350000000000000000000000007E01818200412
:1053600040020000000040022004181807E000007E
:10537000000000000240024001800FF00180024066
:10538000024000000080008000800FF80080008054
:10539000008000000001000D000E00000000000071
:1053A000000000000000008000800080008000807D
:1053B000008000800000000C000C000000000000D5
:1053C00000000000000000060018006001800600D8
:1053D00018002000000007F0080810041004080856
:1053E00007F000000000080408041FFC000400048B
:1053F0000000000000000E0C101410241044118452
:105400000E0C000000000C18100411041104128886
:105410000C700000000000E00320042408241FFC9E
:105420000024000000001F9810841104110410884B
:1054300010700000000007F008881104110418889B
:105440000070000000001C00100010FC13001C0085
:105450001000000000000E38114410841084114424
:105460000E38000000000700088C10441044088823
:1054700007F00000000000000000030C030C000017
:105480000000000000000000000101060000000014
:105490000000000000000080014002200410080805
:1054A000100400000220022002200220022002201C
:1054B000022000000000100408080410022001402F
:1054C0000080000000000E001200100C106C108014
:1054D0000F00000003E00C1813E4142417C408287C
:1054E00007D000000004003C03C41C40074000E457
:1054F000001C000410041FFC1104110411040E8888
:105500000070000003E00C181004100410041008D0
:105510001C10000010041FFC1004100410040808E4
:1055200007F0000010041FFC1104110417C410043C
:105530000818000010041FFC1104110017C010000F
:105540000800000003E00C181004100410441C783C
:105550000040000010041FFC1084008000801084B4
:105560001FFC10040000100410041FFC10041004A1
:105570000000000000030001100110011FFE1000D8
:105580001000000010041FFC110403801464181C98
:105590001004000010041FFC1004000400040004A8
:1055A000000C000010041FFC1F0000FC1F001FFC6B
:1055B0001004000010041FFC0C04030000E010188D
:1055C0001FFC100007F0080810041004100408085D
:1055D00007F0000010041FFC108410801080108061
:1055E0000F00000007F0081810241024101C080AEF
:1055F00007F2000010041FFC1104110011C011304B
:105600000E0C000400000E1C1104108410841044C1
:105610001C3800001800100010041FFC10041000BB
:105620001800000010001FF810040004000410040B
:105630001FF8100010001E0011E0001C0070138005
:105640001C0010001FC0103C00E01F0000E0103CD8
:105650001FC000001004180C163401C001C016341D
:10566000180C100410001C00130400FC13041C0090
:10567000100000000804101C1064108413041C04A3
:10568000101800000000000000007FFE40024002F1
:1056900040020000000030000C0003800060001C8D
:1056A0000003000000004002400240027FFE0000B4
:1056B000000000000000000020004000400040000A
:1056C00020000000000100010001000100010001B4
:1056D0000001000100004000400020000000000028
:1056E000000000000000009801240144014401442E
:1056F00000FC000410001FFC008801040104008865
:105700000070000000000070008801040104010422
:1057100000880000000000700088010401041108E6
:105720001FFC0004000000F801440144014401444E
:1057300000C800000000010401040FFC1104110462
:1057400011001800000000D601290129012901C912
:105750000106000010041FFC008401000100010488
:1057600000FC000400000104190419FC00040004FA
:10577000000000000000000300010101190119FEF2
:105780000000000010041FFC0024004001B4010CC4
:10579000010400000000100410041FFC00040004B9
:1057A00000000000010401FC0104010001FC0104EF
:1057B000010000FC010401FC00840100010001045F
:1057C00000FC0004000000F80104010401040104CD
:1057D00000F80000010101FF0085010401040088B8
:1057E0000070000000000070008801040104010541
:1057F00001FF00010104010401FC00840104010017
:1058000001800000000000CC0124012401240124B7
:105810000198000000000100010007F801040104E4
:1058200000000000010001F8000400040004010869
:1058300001FC0004010001800170000C00100160F7
:105840000180010001F0010C003001C00030010CAA
:1058500001F0010000000104018C00740170018C52
:1058600001040000010101810171000E00180160B6
:105870000180010000000184010C01340144018415
:10588000010C0000000000000000000001003EFCD0
:10589000400240020000000000000000FFFF000086
:1058A000000000000000400240023EFC0100000039
:1058B0000000000000006000800080004000400008
:1058C0002000200000000000000000000000000098
:1058D00000000000000000000000000000000000C8
:1058E00000000000000000000000000000000000B8
:1058F000000000000000000F80380FFE380F8038D5
:105900000000000000000000000000000000000097
:1059100000000100000600000C000038000031000B
:10592000000600000C0000380000300000000000FD
:105930000000000061800067F807F98000618000C6
:1059400061800061800061800067F807F980006174
:105950008000000000000000000001C0E003E0F053
:105960000630080418081FFFFE040E080787F0031E
:1059700081E000000000000001F000060C000404BB
:1059800008060C7001F9C0000E00003BE000EC18A6
:10599000070808040C180003E00000000001E00004
:1059A00007F003F818041C0804170807E1D003C027
:1059B000E00023B0003C08002008000010000000B8
:1059C0000000000100003100003200001C00000057
:1059D00000000000000000000000000000000000C7
:1059E00000000000000000000000000000000000B7
:1059F000000000007F0001FFC00780F00C001810BD
:105A0000000420000200000000000020000210003E
:105A1000040C00180780F001FFC0007F00000000A8
:105A20000000000000000000000000000000000076
:105A30004200006600006600003C0000180003FF02
:105A4000C0001800003C0000660000660000420034
:105A50000000000008000008000008000008000026
:105A6000080001FFC000080000080000080000084E
:105A700000000800000000000001000031000032BA
:105A800000001C00000000000000000000000000FA
:105A900000000000000000000000000008000008F6
:105AA00000000800000800000800000800000800CE
:105AB00000080000080000080000000000000000CE
:105AC000000000003800003800003800000000002E
:105AD00000000000000000000000000000000000C6
